{
  "_format": "hh-sol-artifact-1",
  "contractName": "EthTransfer",
  "sourceName": "contracts/EthTransfer.sol",
  "abi": [
    {
      "inputs": [
        {
          "internalType": "address payable",
          "name": "_to",
          "type": "address"
        },
        {
          "internalType": "uint256",
          "name": "_amount",
          "type": "uint256"
        }
      ],
      "name": "transferEther",
      "outputs": [],
      "stateMutability": "payable",
      "type": "function"
    },
    {
      "stateMutability": "payable",
      "type": "receive"
    }
  ],
  "bytecode": "0x608060405234801561001057600080fd5b5061022b806100206000396000f3fe6080604052600436106100225760003560e01c806305b1137b1461002e57600080fd5b3661002957005b600080fd5b61004161003c36600461015b565b610043565b005b804710156100d6576040517f08c379a0000000000000000000000000000000000000000000000000000000008152602060048201526024808201527f496e73756666696369656e742062616c616e636520696e2074686520636f6e7460448201527f7261637400000000000000000000000000000000000000000000000000000000606482015260840160405180910390fd5b60006100e18261013b565b905060006100ee8261014e565b60405190915073ffffffffffffffffffffffffffffffffffffffff85169082156108fc029083906000818181858888f19350505050158015610134573d6000803e3d6000fd5b5050505050565b60006101488260016101cf565b92915050565b60006101486001836101e2565b6000806040838503121561016e57600080fd5b823573ffffffffffffffffffffffffffffffffffffffff8116811461019257600080fd5b946020939093013593505050565b7f4e487b7100000000000000000000000000000000000000000000000000000000600052601160045260246000fd5b80820180821115610148576101486101a0565b81810381811115610148576101486101a056fea2646970667358221220ee0b9755e57855499953c16db4a72491beefa8839bb8221d30e4b2c6112ab2f164736f6c63430008180033",
  "linkReferences": {},
  "deployedLinkReferences": {}
}