{
  "_format": "hh-sol-artifact-1",
  "contractName": "MyERC20",
  "sourceName": "contracts/MyERC20.sol",
  "abi": [
    {
      "inputs": [
        {
          "internalType": "address",
          "name": "_userContract",
          "type": "address"
        },
        {
          "internalType": "address",
          "name": "_restaurantContract",
          "type": "address"
        }
      ],
      "stateMutability": "nonpayable",
      "type": "constructor"
    },
    {
      "anonymous": false,
      "inputs": [
        {
          "indexed": true,
          "internalType": "address",
          "name": "tokenOwner",
          "type": "address"
        },
        {
          "indexed": true,
          "internalType": "address",
          "name": "spender",
          "type": "address"
        },
        {
          "indexed": false,
          "internalType": "uint256",
          "name": "tokens",
          "type": "uint256"
        }
      ],
      "name": "Approval",
      "type": "event"
    },
    {
      "anonymous": false,
      "inputs": [
        {
          "indexed": true,
          "internalType": "address",
          "name": "from",
          "type": "address"
        },
        {
          "indexed": true,
          "internalType": "address",
          "name": "to",
          "type": "address"
        },
        {
          "indexed": false,
          "internalType": "uint256",
          "name": "tokens",
          "type": "uint256"
        }
      ],
      "name": "Transfer",
      "type": "event"
    },
    {
      "inputs": [
        {
          "internalType": "address",
          "name": "tokenOwner",
          "type": "address"
        },
        {
          "internalType": "address",
          "name": "spender",
          "type": "address"
        }
      ],
      "name": "allowance",
      "outputs": [
        {
          "internalType": "uint256",
          "name": "",
          "type": "uint256"
        }
      ],
      "stateMutability": "view",
      "type": "function"
    },
    {
      "inputs": [
        {
          "internalType": "address",
          "name": "spender",
          "type": "address"
        },
        {
          "internalType": "uint256",
          "name": "tokens",
          "type": "uint256"
        }
      ],
      "name": "approve",
      "outputs": [
        {
          "internalType": "bool",
          "name": "",
          "type": "bool"
        }
      ],
      "stateMutability": "nonpayable",
      "type": "function"
    },
    {
      "inputs": [
        {
          "internalType": "address",
          "name": "tokenOwner",
          "type": "address"
        }
      ],
      "name": "balanceOf",
      "outputs": [
        {
          "internalType": "uint256",
          "name": "",
          "type": "uint256"
        }
      ],
      "stateMutability": "view",
      "type": "function"
    },
    {
      "inputs": [],
      "name": "decimals",
      "outputs": [
        {
          "internalType": "uint8",
          "name": "",
          "type": "uint8"
        }
      ],
      "stateMutability": "view",
      "type": "function"
    },
    {
      "inputs": [
        {
          "internalType": "uint256",
          "name": "tokens",
          "type": "uint256"
        }
      ],
      "name": "deposit",
      "outputs": [],
      "stateMutability": "nonpayable",
      "type": "function"
    },
    {
      "inputs": [
        {
          "internalType": "uint256",
          "name": "_orderId",
          "type": "uint256"
        }
      ],
      "name": "getOrderById",
      "outputs": [
        {
          "internalType": "address",
          "name": "from",
          "type": "address"
        },
        {
          "internalType": "address",
          "name": "to",
          "type": "address"
        },
        {
          "internalType": "uint256",
          "name": "amount",
          "type": "uint256"
        },
        {
          "internalType": "uint256[]",
          "name": "productIDs",
          "type": "uint256[]"
        },
        {
          "internalType": "uint256[]",
          "name": "prices",
          "type": "uint256[]"
        },
        {
          "internalType": "string[]",
          "name": "names",
          "type": "string[]"
        },
        {
          "internalType": "string[]",
          "name": "descriptions",
          "type": "string[]"
        },
        {
          "internalType": "string[]",
          "name": "gramajs",
          "type": "string[]"
        }
      ],
      "stateMutability": "view",
      "type": "function"
    },
    {
      "inputs": [],
      "name": "getOrderCount",
      "outputs": [
        {
          "internalType": "uint256",
          "name": "",
          "type": "uint256"
        }
      ],
      "stateMutability": "view",
      "type": "function"
    },
    {
      "inputs": [
        {
          "internalType": "address",
          "name": "_userAddress",
          "type": "address"
        }
      ],
      "name": "getOrdersByUser",
      "outputs": [
        {
          "components": [
            {
              "internalType": "address",
              "name": "from",
              "type": "address"
            },
            {
              "internalType": "address",
              "name": "to",
              "type": "address"
            },
            {
              "internalType": "uint256",
              "name": "amount",
              "type": "uint256"
            },
            {
              "internalType": "uint256[]",
              "name": "products",
              "type": "uint256[]"
            }
          ],
          "internalType": "struct MyERC20.OrderData[]",
          "name": "",
          "type": "tuple[]"
        }
      ],
      "stateMutability": "view",
      "type": "function"
    },
    {
      "inputs": [
        {
          "internalType": "address",
          "name": "_userAddress",
          "type": "address"
        },
        {
          "internalType": "address",
          "name": "_restaurantAddress",
          "type": "address"
        }
      ],
      "name": "hasOrderedFromRestaurant",
      "outputs": [
        {
          "internalType": "bool",
          "name": "",
          "type": "bool"
        }
      ],
      "stateMutability": "view",
      "type": "function"
    },
    {
      "inputs": [],
      "name": "name",
      "outputs": [
        {
          "internalType": "string",
          "name": "",
          "type": "string"
        }
      ],
      "stateMutability": "view",
      "type": "function"
    },
    {
      "inputs": [],
      "name": "orderCount",
      "outputs": [
        {
          "internalType": "uint256",
          "name": "",
          "type": "uint256"
        }
      ],
      "stateMutability": "view",
      "type": "function"
    },
    {
      "inputs": [
        {
          "internalType": "uint256",
          "name": "",
          "type": "uint256"
        }
      ],
      "name": "orders",
      "outputs": [
        {
          "internalType": "address",
          "name": "from",
          "type": "address"
        },
        {
          "internalType": "address",
          "name": "to",
          "type": "address"
        },
        {
          "internalType": "uint256",
          "name": "amount",
          "type": "uint256"
        }
      ],
      "stateMutability": "view",
      "type": "function"
    },
    {
      "inputs": [
        {
          "internalType": "address",
          "name": "_to",
          "type": "address"
        },
        {
          "internalType": "uint256[]",
          "name": "products",
          "type": "uint256[]"
        }
      ],
      "name": "placeOrder",
      "outputs": [],
      "stateMutability": "nonpayable",
      "type": "function"
    },
    {
      "inputs": [],
      "name": "symbol",
      "outputs": [
        {
          "internalType": "string",
          "name": "",
          "type": "string"
        }
      ],
      "stateMutability": "view",
      "type": "function"
    },
    {
      "inputs": [],
      "name": "totalSupply",
      "outputs": [
        {
          "internalType": "uint256",
          "name": "",
          "type": "uint256"
        }
      ],
      "stateMutability": "view",
      "type": "function"
    },
    {
      "inputs": [
        {
          "internalType": "address",
          "name": "receiver",
          "type": "address"
        },
        {
          "internalType": "uint256",
          "name": "tokens",
          "type": "uint256"
        }
      ],
      "name": "transfer",
      "outputs": [
        {
          "internalType": "bool",
          "name": "",
          "type": "bool"
        }
      ],
      "stateMutability": "nonpayable",
      "type": "function"
    },
    {
      "inputs": [
        {
          "internalType": "address",
          "name": "from",
          "type": "address"
        },
        {
          "internalType": "address",
          "name": "to",
          "type": "address"
        },
        {
          "internalType": "uint256",
          "name": "tokens",
          "type": "uint256"
        }
      ],
      "name": "transferFrom",
      "outputs": [
        {
          "internalType": "bool",
          "name": "",
          "type": "bool"
        }
      ],
      "stateMutability": "nonpayable",
      "type": "function"
    },
    {
      "inputs": [
        {
          "internalType": "address",
          "name": "",
          "type": "address"
        },
        {
          "internalType": "uint256",
          "name": "",
          "type": "uint256"
        }
      ],
      "name": "userOrders",
      "outputs": [
        {
          "internalType": "uint256",
          "name": "",
          "type": "uint256"
        }
      ],
      "stateMutability": "view",
      "type": "function"
    },
    {
      "inputs": [
        {
          "internalType": "address",
          "name": "",
          "type": "address"
        },
        {
          "internalType": "address",
          "name": "",
          "type": "address"
        }
      ],
      "name": "userRestaurantOrders",
      "outputs": [
        {
          "internalType": "bool",
          "name": "",
          "type": "bool"
        }
      ],
      "stateMutability": "view",
      "type": "function"
    }
  ],
  "bytecode": "0x60c06040526011608090815270546f6b656e206f7074696f6e616c20424360781b60a05260099062000032908262000170565b50600a805460ff191690556040805180820190915260038152620544f560ec1b6020820152600b9062000066908262000170565b503480156200007457600080fd5b5060405162001e3138038062001e31833981016040819052620000979162000259565b600380546001600160a01b039384166001600160a01b0319918216179091556004805492909316911617905562000291565b634e487b7160e01b600052604160045260246000fd5b600181811c90821680620000f457607f821691505b6020821081036200011557634e487b7160e01b600052602260045260246000fd5b50919050565b601f8211156200016b576000816000526020600020601f850160051c81016020861015620001465750805b601f850160051c820191505b81811015620001675782815560010162000152565b5050505b505050565b81516001600160401b038111156200018c576200018c620000c9565b620001a4816200019d8454620000df565b846200011b565b602080601f831160018114620001dc5760008415620001c35750858301515b600019600386901b1c1916600185901b17855562000167565b600085815260208120601f198616915b828110156200020d57888601518255948401946001909101908401620001ec565b50858210156200022c5787850151600019600388901b60f8161c191681555b5050505050600190811b01905550565b80516001600160a01b03811681146200025457600080fd5b919050565b600080604083850312156200026d57600080fd5b62000278836200023c565b915062000288602084016200023c565b90509250929050565b611b9080620002a16000396000f3fe608060405234801561001057600080fd5b50600436106101515760003560e01c806370a08231116100cd578063a9059cbb11610081578063bc505be311610066578063bc505be31461033b578063c32d466d14610384578063dd62ed3e146103b257600080fd5b8063a9059cbb14610315578063b6b55f251461032857600080fd5b80638d0a5fbb116100b25780638d0a5fbb1461028957806395d89b4114610291578063a85c38ef1461029957600080fd5b806370a0823114610240578063856652e91461027657600080fd5b806323b872dd11610124578063313ce56711610109578063313ce567146101e55780633c0c5e641461020457806342b50a7a1461021957600080fd5b806323b872dd146101c95780632453ffa8146101dc57600080fd5b806306fdde0314610156578063095ea7b31461017457806318160ddd1461019757806318f1c709146101a9575b600080fd5b61015e6103f8565b60405161016b9190611434565b60405180910390f35b610187610182366004611477565b610486565b604051901515815260200161016b565b6000545b60405190815260200161016b565b6101bc6101b73660046114a1565b610500565b60405161016b91906114bc565b6101876101d73660046115a9565b610703565b61019b60075481565b600a546101f29060ff1681565b60405160ff909116815260200161016b565b610217610212366004611663565b610975565b005b61022c61022736600461171c565b610d60565b60405161016b9897969594939291906117e9565b61019b61024e3660046114a1565b73ffffffffffffffffffffffffffffffffffffffff1660009081526001602052604090205490565b61019b610284366004611477565b6111a5565b60075461019b565b61015e6111d6565b6102e26102a736600461171c565b60056020526000908152604090208054600182015460029092015473ffffffffffffffffffffffffffffffffffffffff918216929091169083565b6040805173ffffffffffffffffffffffffffffffffffffffff94851681529390921660208401529082015260600161016b565b610187610323366004611477565b6111e3565b61021761033636600461171c565b611327565b610187610349366004611888565b73ffffffffffffffffffffffffffffffffffffffff918216600090815260086020908152604080832093909416825291909152205460ff1690565b610187610392366004611888565b600860209081526000928352604080842090915290825290205460ff1681565b61019b6103c0366004611888565b73ffffffffffffffffffffffffffffffffffffffff918216600090815260026020908152604080832093909416825291909152205490565b60098054610405906118bb565b80601f0160208091040260200160405190810160405280929190818152602001828054610431906118bb565b801561047e5780601f106104535761010080835404028352916020019161047e565b820191906000526020600020905b81548152906001019060200180831161046157829003601f168201915b505050505081565b33600081815260026020908152604080832073ffffffffffffffffffffffffffffffffffffffff8716808552925280832085905551919290917f8c5be1e5ebec7d5bd14f71427d1e84f3dd0314c0f7b2291e5b200ac8c7c3b925906104ee9086815260200190565b60405180910390a35060015b92915050565b73ffffffffffffffffffffffffffffffffffffffff8116600090815260066020908152604080832080548251818502810185019093528083526060949383018282801561056c57602002820191906000526020600020905b815481526020019060010190808311610558575b505050505090506000815167ffffffffffffffff81111561058f5761058f6115e5565b6040519080825280602002602001820160405280156105fe57816020015b60408051608081018252600080825260208083018290529282015260608082015282527fffffffffffffffffffffffffffffffffffffffffffffffffffffffffffffffff9092019101816105ad5790505b50905060005b82518110156106fb576000600560008584815181106106255761062561190e565b60209081029190910181015182528181019290925260409081016000208151608081018352815473ffffffffffffffffffffffffffffffffffffffff9081168252600183015416818501526002820154818401526003820180548451818702810187019095528085529295509093859360608601939092918301828280156106cc57602002820191906000526020600020905b8154815260200190600101908083116106b8575b5050505050815250508383815181106106e7576106e761190e565b602090810291909101015250600101610604565b509392505050565b73ffffffffffffffffffffffffffffffffffffffff83166000908152600160205260408120548490839081111561079b576040517f08c379a000000000000000000000000000000000000000000000000000000000815260206004820152601360248201527f496e73756666696369656e742066756e6473210000000000000000000000000060448201526064015b60405180910390fd5b73ffffffffffffffffffffffffffffffffffffffff8616600090815260026020908152604080832033808552925290912054879190869081111561083b576040517f08c379a000000000000000000000000000000000000000000000000000000000815260206004820152601760248201527f496e73756666696369656e7420616c6c6f77616e6365210000000000000000006044820152606401610792565b73ffffffffffffffffffffffffffffffffffffffff891660009081526001602052604090205461086c90889061196c565b73ffffffffffffffffffffffffffffffffffffffff8a1660009081526001602090815260408083209390935560028152828220338352905220546108b190889061196c565b73ffffffffffffffffffffffffffffffffffffffff808b166000908152600260209081526040808320338452825280832094909455918b168152600190915220546108fd90889061197f565b73ffffffffffffffffffffffffffffffffffffffff808a1660008181526001602052604090819020939093559151908b16907fddf252ad1be2c89b69c2b068fc378daa952ba7f163c4a11628f55a4df523b3ef9061095e908b815260200190565b60405180910390a350600198975050505050505050565b6003546040517f0e666e4900000000000000000000000000000000000000000000000000000000815273ffffffffffffffffffffffffffffffffffffffff848116600483015290911690630e666e4990602401602060405180830381865afa1580156109e5573d6000803e3d6000fd5b505050506040513d601f19601f82011682018060405250810190610a099190611992565b80610aa55750600480546040517f79a4fa2700000000000000000000000000000000000000000000000000000000815273ffffffffffffffffffffffffffffffffffffffff858116938201939093529116906379a4fa2790602401602060405180830381865afa158015610a81573d6000803e3d6000fd5b505050506040513d601f19601f82011682018060405250810190610aa59190611992565b610b0b576040517f08c379a000000000000000000000000000000000000000000000000000000000815260206004820152601960248201527f496e76616c696420726563697069656e742061646472657373000000000000006044820152606401610792565b600480546040517f18a9b9e100000000000000000000000000000000000000000000000000000000815260009273ffffffffffffffffffffffffffffffffffffffff909216916318a9b9e191610b659187918791016119b4565b602060405180830381865afa158015610b82573d6000803e3d6000fd5b505050506040513d601f19601f82011682018060405250810190610ba691906119eb565b905060008111610c12576040517f08c379a000000000000000000000000000000000000000000000000000000000815260206004820152601460248201527f496e76616c6964206f7264657220616d6f756e740000000000000000000000006044820152606401610792565b60078054906000610c2283611a04565b9190505550610c3183826111e3565b506040805160808101825233815273ffffffffffffffffffffffffffffffffffffffff85811660208084019182528385018681526060850188815260075460009081526005845296909620855181549086167fffffffffffffffffffffffff00000000000000000000000000000000000000009182161782559351600182018054919096169416939093179093559151600282015592518051929392610cdd9260038501920190611366565b505033600081815260066020908152604080832060075481546001818101845592865284862001559383526008825280832073ffffffffffffffffffffffffffffffffffffffff9890981683529690529490942080547fffffffffffffffffffffffffffffffffffffffffffffffffffffffffffffff0016909417909355505050565b60008060006060806060806060600089118015610d7f57506007548911155b610de5576040517f08c379a000000000000000000000000000000000000000000000000000000000815260206004820152601060248201527f496e76616c6964206f72646572204944000000000000000000000000000000006044820152606401610792565b6000898152600560205260408120600381015490919067ffffffffffffffff811115610e1357610e136115e5565b604051908082528060200260200182016040528015610e3c578160200160208202803683370190505b50600383015490915060009067ffffffffffffffff811115610e6057610e606115e5565b604051908082528060200260200182016040528015610e89578160200160208202803683370190505b50600384015490915060009067ffffffffffffffff811115610ead57610ead6115e5565b604051908082528060200260200182016040528015610ee057816020015b6060815260200190600190039081610ecb5790505b50600385015490915060009067ffffffffffffffff811115610f0457610f046115e5565b604051908082528060200260200182016040528015610f3757816020015b6060815260200190600190039081610f225790505b50600386015490915060009067ffffffffffffffff811115610f5b57610f5b6115e5565b604051908082528060200260200182016040528015610f8e57816020015b6060815260200190600190039081610f795790505b50905060005b600387015481101561115f576004546001880154600389018054600093849384938493849373ffffffffffffffffffffffffffffffffffffffff908116936369d5f81e939116918a908110610feb57610feb61190e565b6000918252602090912001546040517fffffffff0000000000000000000000000000000000000000000000000000000060e085901b16815273ffffffffffffffffffffffffffffffffffffffff90921660048301526024820152604401600060405180830381865afa158015611065573d6000803e3d6000fd5b505050506040513d6000823e601f3d9081017fffffffffffffffffffffffffffffffffffffffffffffffffffffffffffffffe01682016040526110ab9190810190611abe565b94509450945094509450848b87815181106110c8576110c861190e565b602002602001018181525050828a87815181106110e7576110e761190e565b602002602001018181525050838987815181106111065761110661190e565b6020026020010181905250818887815181106111245761112461190e565b6020026020010181905250808787815181106111425761114261190e565b602002602001018190525050505050508080600101915050610f94565b508554600187015460029097015473ffffffffffffffffffffffffffffffffffffffff9182169f5096169c50949a50929850909650945092509050919395975091939597565b600660205281600052604060002081815481106111c157600080fd5b90600052602060002001600091509150505481565b600b8054610405906118bb565b336000818152600160205260408120549091908390811115611261576040517f08c379a000000000000000000000000000000000000000000000000000000000815260206004820152601360248201527f496e73756666696369656e742066756e647321000000000000000000000000006044820152606401610792565b3360009081526001602052604090205461127c90859061196c565b336000908152600160205260408082209290925573ffffffffffffffffffffffffffffffffffffffff8716815220546112b690859061197f565b73ffffffffffffffffffffffffffffffffffffffff86166000818152600160205260409081902092909255905133907fddf252ad1be2c89b69c2b068fc378daa952ba7f163c4a11628f55a4df523b3ef906113149088815260200190565b60405180910390a3506001949350505050565b336000908152600160205260408120805483929061134690849061197f565b925050819055508060008082825461135e919061197f565b909155505050565b8280548282559060005260206000209081019282156113a1579160200282015b828111156113a1578251825591602001919060010190611386565b506113ad9291506113b1565b5090565b5b808211156113ad57600081556001016113b2565b60005b838110156113e15781810151838201526020016113c9565b50506000910152565b600081518084526114028160208601602086016113c6565b601f017fffffffffffffffffffffffffffffffffffffffffffffffffffffffffffffffe0169290920160200192915050565b60208152600061144760208301846113ea565b9392505050565b803573ffffffffffffffffffffffffffffffffffffffff8116811461147257600080fd5b919050565b6000806040838503121561148a57600080fd5b6114938361144e565b946020939093013593505050565b6000602082840312156114b357600080fd5b6114478261144e565b600060208083018184528085518083526040925060408601915060408160051b8701018488016000805b8481101561159a578984037fffffffffffffffffffffffffffffffffffffffffffffffffffffffffffffffc00186528251805173ffffffffffffffffffffffffffffffffffffffff908116865289820151168986015287810151888601526060908101516080918601829052805191860182905289019060a086019084905b808210156115855783518352928b0192918b019160019190910190611565565b505096890196945050918701916001016114e6565b50919998505050505050505050565b6000806000606084860312156115be57600080fd5b6115c78461144e565b92506115d56020850161144e565b9150604084013590509250925092565b7f4e487b7100000000000000000000000000000000000000000000000000000000600052604160045260246000fd5b604051601f82017fffffffffffffffffffffffffffffffffffffffffffffffffffffffffffffffe016810167ffffffffffffffff8111828210171561165b5761165b6115e5565b604052919050565b6000806040838503121561167657600080fd5b61167f8361144e565b915060208084013567ffffffffffffffff8082111561169d57600080fd5b818601915086601f8301126116b157600080fd5b8135818111156116c3576116c36115e5565b8060051b91506116d4848301611614565b81815291830184019184810190898411156116ee57600080fd5b938501935b8385101561170c578435825293850193908501906116f3565b8096505050505050509250929050565b60006020828403121561172e57600080fd5b5035919050565b60008151808452602080850194506020840160005b838110156117665781518752958201959082019060010161174a565b509495945050505050565b60008282518085526020808601955060208260051b8401016020860160005b848110156117dc577fffffffffffffffffffffffffffffffffffffffffffffffffffffffffffffffe08684030189526117ca8383516113ea565b98840198925090830190600101611790565b5090979650505050505050565b600061010073ffffffffffffffffffffffffffffffffffffffff808c168452808b1660208501525088604084015280606084015261182981840189611735565b9050828103608084015261183d8188611735565b905082810360a08401526118518187611771565b905082810360c08401526118658186611771565b905082810360e08401526118798185611771565b9b9a5050505050505050505050565b6000806040838503121561189b57600080fd5b6118a48361144e565b91506118b26020840161144e565b90509250929050565b600181811c908216806118cf57607f821691505b602082108103611908577f4e487b7100000000000000000000000000000000000000000000000000000000600052602260045260246000fd5b50919050565b7f4e487b7100000000000000000000000000000000000000000000000000000000600052603260045260246000fd5b7f4e487b7100000000000000000000000000000000000000000000000000000000600052601160045260246000fd5b818103818111156104fa576104fa61193d565b808201808211156104fa576104fa61193d565b6000602082840312156119a457600080fd5b8151801515811461144757600080fd5b73ffffffffffffffffffffffffffffffffffffffff831681526040602082015260006119e36040830184611735565b949350505050565b6000602082840312156119fd57600080fd5b5051919050565b60007fffffffffffffffffffffffffffffffffffffffffffffffffffffffffffffffff8203611a3557611a3561193d565b5060010190565b600082601f830112611a4d57600080fd5b815167ffffffffffffffff811115611a6757611a676115e5565b611a9860207fffffffffffffffffffffffffffffffffffffffffffffffffffffffffffffffe0601f84011601611614565b818152846020838601011115611aad57600080fd5b6119e38260208301602087016113c6565b600080600080600060a08688031215611ad657600080fd5b85519450602086015167ffffffffffffffff80821115611af557600080fd5b611b0189838a01611a3c565b9550604088015194506060880151915080821115611b1e57600080fd5b611b2a89838a01611a3c565b93506080880151915080821115611b4057600080fd5b50611b4d88828901611a3c565b915050929550929590935056fea2646970667358221220e2c925ddce820b3833b0723a1a705807735626c3dd6fa6c4f3168820808c534764736f6c63430008180033",
  "linkReferences": {},
  "deployedLinkReferences": {}
}