{
  "_format": "hh-sol-artifact-1",
  "contractName": "MyERC20",
  "sourceName": "contracts/MyERC20.sol",
  "abi": [
    {
      "inputs": [
        {
          "internalType": "address",
          "name": "_userContract",
          "type": "address"
        },
        {
          "internalType": "address",
          "name": "_restaurantContract",
          "type": "address"
        }
      ],
      "stateMutability": "nonpayable",
      "type": "constructor"
    },
    {
      "anonymous": false,
      "inputs": [
        {
          "indexed": true,
          "internalType": "address",
          "name": "tokenOwner",
          "type": "address"
        },
        {
          "indexed": true,
          "internalType": "address",
          "name": "spender",
          "type": "address"
        },
        {
          "indexed": false,
          "internalType": "uint256",
          "name": "tokens",
          "type": "uint256"
        }
      ],
      "name": "Approval",
      "type": "event"
    },
    {
      "anonymous": false,
      "inputs": [
        {
          "indexed": true,
          "internalType": "address",
          "name": "from",
          "type": "address"
        },
        {
          "indexed": true,
          "internalType": "address",
          "name": "to",
          "type": "address"
        },
        {
          "indexed": false,
          "internalType": "uint256",
          "name": "tokens",
          "type": "uint256"
        }
      ],
      "name": "Transfer",
      "type": "event"
    },
    {
      "inputs": [
        {
          "internalType": "address",
          "name": "tokenOwner",
          "type": "address"
        },
        {
          "internalType": "address",
          "name": "spender",
          "type": "address"
        }
      ],
      "name": "allowance",
      "outputs": [
        {
          "internalType": "uint256",
          "name": "",
          "type": "uint256"
        }
      ],
      "stateMutability": "view",
      "type": "function"
    },
    {
      "inputs": [
        {
          "internalType": "address",
          "name": "spender",
          "type": "address"
        },
        {
          "internalType": "uint256",
          "name": "tokens",
          "type": "uint256"
        }
      ],
      "name": "approve",
      "outputs": [
        {
          "internalType": "bool",
          "name": "",
          "type": "bool"
        }
      ],
      "stateMutability": "nonpayable",
      "type": "function"
    },
    {
      "inputs": [
        {
          "internalType": "address",
          "name": "tokenOwner",
          "type": "address"
        }
      ],
      "name": "balanceOf",
      "outputs": [
        {
          "internalType": "uint256",
          "name": "",
          "type": "uint256"
        }
      ],
      "stateMutability": "view",
      "type": "function"
    },
    {
      "inputs": [],
      "name": "decimals",
      "outputs": [
        {
          "internalType": "uint8",
          "name": "",
          "type": "uint8"
        }
      ],
      "stateMutability": "view",
      "type": "function"
    },
    {
      "inputs": [
        {
          "internalType": "uint256",
          "name": "tokens",
          "type": "uint256"
        }
      ],
      "name": "deposit",
      "outputs": [],
      "stateMutability": "nonpayable",
      "type": "function"
    },
    {
      "inputs": [
        {
          "internalType": "uint256",
          "name": "_orderId",
          "type": "uint256"
        }
      ],
      "name": "getOrderById",
      "outputs": [
        {
          "internalType": "address",
          "name": "from",
          "type": "address"
        },
        {
          "internalType": "address",
          "name": "to",
          "type": "address"
        },
        {
          "internalType": "uint256",
          "name": "amount",
          "type": "uint256"
        },
        {
          "internalType": "uint256[]",
          "name": "productIDs",
          "type": "uint256[]"
        },
        {
          "internalType": "uint256[]",
          "name": "prices",
          "type": "uint256[]"
        },
        {
          "internalType": "string[]",
          "name": "descriptions",
          "type": "string[]"
        },
        {
          "internalType": "string[]",
          "name": "gramajs",
          "type": "string[]"
        }
      ],
      "stateMutability": "view",
      "type": "function"
    },
    {
      "inputs": [],
      "name": "getOrderCount",
      "outputs": [
        {
          "internalType": "uint256",
          "name": "",
          "type": "uint256"
        }
      ],
      "stateMutability": "view",
      "type": "function"
    },
    {
      "inputs": [
        {
          "internalType": "address",
          "name": "_userAddress",
          "type": "address"
        }
      ],
      "name": "getOrdersByUser",
      "outputs": [
        {
          "components": [
            {
              "internalType": "address",
              "name": "from",
              "type": "address"
            },
            {
              "internalType": "address",
              "name": "to",
              "type": "address"
            },
            {
              "internalType": "uint256",
              "name": "amount",
              "type": "uint256"
            },
            {
              "internalType": "uint256[]",
              "name": "products",
              "type": "uint256[]"
            }
          ],
          "internalType": "struct MyERC20.OrderData[]",
          "name": "",
          "type": "tuple[]"
        }
      ],
      "stateMutability": "view",
      "type": "function"
    },
    {
      "inputs": [
        {
          "internalType": "address",
          "name": "_userAddress",
          "type": "address"
        },
        {
          "internalType": "address",
          "name": "_restaurantAddress",
          "type": "address"
        }
      ],
      "name": "hasOrderedFromRestaurant",
      "outputs": [
        {
          "internalType": "bool",
          "name": "",
          "type": "bool"
        }
      ],
      "stateMutability": "view",
      "type": "function"
    },
    {
      "inputs": [],
      "name": "name",
      "outputs": [
        {
          "internalType": "string",
          "name": "",
          "type": "string"
        }
      ],
      "stateMutability": "view",
      "type": "function"
    },
    {
      "inputs": [],
      "name": "orderCount",
      "outputs": [
        {
          "internalType": "uint256",
          "name": "",
          "type": "uint256"
        }
      ],
      "stateMutability": "view",
      "type": "function"
    },
    {
      "inputs": [
        {
          "internalType": "uint256",
          "name": "",
          "type": "uint256"
        }
      ],
      "name": "orders",
      "outputs": [
        {
          "internalType": "address",
          "name": "from",
          "type": "address"
        },
        {
          "internalType": "address",
          "name": "to",
          "type": "address"
        },
        {
          "internalType": "uint256",
          "name": "amount",
          "type": "uint256"
        }
      ],
      "stateMutability": "view",
      "type": "function"
    },
    {
      "inputs": [
        {
          "internalType": "address",
          "name": "_to",
          "type": "address"
        },
        {
          "internalType": "uint256[]",
          "name": "products",
          "type": "uint256[]"
        }
      ],
      "name": "placeOrder",
      "outputs": [],
      "stateMutability": "nonpayable",
      "type": "function"
    },
    {
      "inputs": [],
      "name": "symbol",
      "outputs": [
        {
          "internalType": "string",
          "name": "",
          "type": "string"
        }
      ],
      "stateMutability": "view",
      "type": "function"
    },
    {
      "inputs": [],
      "name": "totalSupply",
      "outputs": [
        {
          "internalType": "uint256",
          "name": "",
          "type": "uint256"
        }
      ],
      "stateMutability": "view",
      "type": "function"
    },
    {
      "inputs": [
        {
          "internalType": "address",
          "name": "receiver",
          "type": "address"
        },
        {
          "internalType": "uint256",
          "name": "tokens",
          "type": "uint256"
        }
      ],
      "name": "transfer",
      "outputs": [
        {
          "internalType": "bool",
          "name": "",
          "type": "bool"
        }
      ],
      "stateMutability": "nonpayable",
      "type": "function"
    },
    {
      "inputs": [
        {
          "internalType": "address",
          "name": "from",
          "type": "address"
        },
        {
          "internalType": "address",
          "name": "to",
          "type": "address"
        },
        {
          "internalType": "uint256",
          "name": "tokens",
          "type": "uint256"
        }
      ],
      "name": "transferFrom",
      "outputs": [
        {
          "internalType": "bool",
          "name": "",
          "type": "bool"
        }
      ],
      "stateMutability": "nonpayable",
      "type": "function"
    },
    {
      "inputs": [
        {
          "internalType": "address",
          "name": "",
          "type": "address"
        },
        {
          "internalType": "uint256",
          "name": "",
          "type": "uint256"
        }
      ],
      "name": "userOrders",
      "outputs": [
        {
          "internalType": "uint256",
          "name": "",
          "type": "uint256"
        }
      ],
      "stateMutability": "view",
      "type": "function"
    },
    {
      "inputs": [
        {
          "internalType": "address",
          "name": "",
          "type": "address"
        },
        {
          "internalType": "address",
          "name": "",
          "type": "address"
        }
      ],
      "name": "userRestaurantOrders",
      "outputs": [
        {
          "internalType": "bool",
          "name": "",
          "type": "bool"
        }
      ],
      "stateMutability": "view",
      "type": "function"
    }
  ],
  "bytecode": "0x60c06040526011608090815270546f6b656e206f7074696f6e616c20424360781b60a05260099062000032908262000170565b50600a805460ff191690556040805180820190915260038152620544f560ec1b6020820152600b9062000066908262000170565b503480156200007457600080fd5b5060405162001d7038038062001d70833981016040819052620000979162000259565b600380546001600160a01b039384166001600160a01b0319918216179091556004805492909316911617905562000291565b634e487b7160e01b600052604160045260246000fd5b600181811c90821680620000f457607f821691505b6020821081036200011557634e487b7160e01b600052602260045260246000fd5b50919050565b601f8211156200016b576000816000526020600020601f850160051c81016020861015620001465750805b601f850160051c820191505b81811015620001675782815560010162000152565b5050505b505050565b81516001600160401b038111156200018c576200018c620000c9565b620001a4816200019d8454620000df565b846200011b565b602080601f831160018114620001dc5760008415620001c35750858301515b600019600386901b1c1916600185901b17855562000167565b600085815260208120601f198616915b828110156200020d57888601518255948401946001909101908401620001ec565b50858210156200022c5787850151600019600388901b60f8161c191681555b5050505050600190811b01905550565b80516001600160a01b03811681146200025457600080fd5b919050565b600080604083850312156200026d57600080fd5b62000278836200023c565b915062000288602084016200023c565b90509250929050565b611acf80620002a16000396000f3fe608060405234801561001057600080fd5b50600436106101515760003560e01c806370a08231116100cd578063a9059cbb11610081578063bc505be311610066578063bc505be31461033a578063c32d466d14610383578063dd62ed3e146103b157600080fd5b8063a9059cbb14610314578063b6b55f251461032757600080fd5b80638d0a5fbb116100b25780638d0a5fbb1461028857806395d89b4114610290578063a85c38ef1461029857600080fd5b806370a082311461023f578063856652e91461027557600080fd5b806323b872dd11610124578063313ce56711610109578063313ce567146101e55780633c0c5e641461020457806342b50a7a1461021957600080fd5b806323b872dd146101c95780632453ffa8146101dc57600080fd5b806306fdde0314610156578063095ea7b31461017457806318160ddd1461019757806318f1c709146101a9575b600080fd5b61015e6103f7565b60405161016b91906113b0565b60405180910390f35b6101876101823660046113f3565b610485565b604051901515815260200161016b565b6000545b60405190815260200161016b565b6101bc6101b736600461141d565b6104ff565b60405161016b9190611438565b6101876101d7366004611525565b610702565b61019b60075481565b600a546101f29060ff1681565b60405160ff909116815260200161016b565b6102176102123660046115df565b610974565b005b61022c610227366004611698565b610d5f565b60405161016b9796959493929190611765565b61019b61024d36600461141d565b73ffffffffffffffffffffffffffffffffffffffff1660009081526001602052604090205490565b61019b6102833660046113f3565b611121565b60075461019b565b61015e611152565b6102e16102a6366004611698565b60056020526000908152604090208054600182015460029092015473ffffffffffffffffffffffffffffffffffffffff918216929091169083565b6040805173ffffffffffffffffffffffffffffffffffffffff94851681529390921660208401529082015260600161016b565b6101876103223660046113f3565b61115f565b610217610335366004611698565b6112a3565b6101876103483660046117ec565b73ffffffffffffffffffffffffffffffffffffffff918216600090815260086020908152604080832093909416825291909152205460ff1690565b6101876103913660046117ec565b600860209081526000928352604080842090915290825290205460ff1681565b61019b6103bf3660046117ec565b73ffffffffffffffffffffffffffffffffffffffff918216600090815260026020908152604080832093909416825291909152205490565b600980546104049061181f565b80601f01602080910402602001604051908101604052809291908181526020018280546104309061181f565b801561047d5780601f106104525761010080835404028352916020019161047d565b820191906000526020600020905b81548152906001019060200180831161046057829003601f168201915b505050505081565b33600081815260026020908152604080832073ffffffffffffffffffffffffffffffffffffffff8716808552925280832085905551919290917f8c5be1e5ebec7d5bd14f71427d1e84f3dd0314c0f7b2291e5b200ac8c7c3b925906104ed9086815260200190565b60405180910390a35060015b92915050565b73ffffffffffffffffffffffffffffffffffffffff8116600090815260066020908152604080832080548251818502810185019093528083526060949383018282801561056b57602002820191906000526020600020905b815481526020019060010190808311610557575b505050505090506000815167ffffffffffffffff81111561058e5761058e611561565b6040519080825280602002602001820160405280156105fd57816020015b60408051608081018252600080825260208083018290529282015260608082015282527fffffffffffffffffffffffffffffffffffffffffffffffffffffffffffffffff9092019101816105ac5790505b50905060005b82518110156106fa5760006005600085848151811061062457610624611872565b60209081029190910181015182528181019290925260409081016000208151608081018352815473ffffffffffffffffffffffffffffffffffffffff9081168252600183015416818501526002820154818401526003820180548451818702810187019095528085529295509093859360608601939092918301828280156106cb57602002820191906000526020600020905b8154815260200190600101908083116106b7575b5050505050815250508383815181106106e6576106e6611872565b602090810291909101015250600101610603565b509392505050565b73ffffffffffffffffffffffffffffffffffffffff83166000908152600160205260408120548490839081111561079a576040517f08c379a000000000000000000000000000000000000000000000000000000000815260206004820152601360248201527f496e73756666696369656e742066756e6473210000000000000000000000000060448201526064015b60405180910390fd5b73ffffffffffffffffffffffffffffffffffffffff8616600090815260026020908152604080832033808552925290912054879190869081111561083a576040517f08c379a000000000000000000000000000000000000000000000000000000000815260206004820152601760248201527f496e73756666696369656e7420616c6c6f77616e6365210000000000000000006044820152606401610791565b73ffffffffffffffffffffffffffffffffffffffff891660009081526001602052604090205461086b9088906118d0565b73ffffffffffffffffffffffffffffffffffffffff8a1660009081526001602090815260408083209390935560028152828220338352905220546108b09088906118d0565b73ffffffffffffffffffffffffffffffffffffffff808b166000908152600260209081526040808320338452825280832094909455918b168152600190915220546108fc9088906118e3565b73ffffffffffffffffffffffffffffffffffffffff808a1660008181526001602052604090819020939093559151908b16907fddf252ad1be2c89b69c2b068fc378daa952ba7f163c4a11628f55a4df523b3ef9061095d908b815260200190565b60405180910390a350600198975050505050505050565b6003546040517f0e666e4900000000000000000000000000000000000000000000000000000000815273ffffffffffffffffffffffffffffffffffffffff848116600483015290911690630e666e4990602401602060405180830381865afa1580156109e4573d6000803e3d6000fd5b505050506040513d601f19601f82011682018060405250810190610a0891906118f6565b80610aa45750600480546040517f79a4fa2700000000000000000000000000000000000000000000000000000000815273ffffffffffffffffffffffffffffffffffffffff858116938201939093529116906379a4fa2790602401602060405180830381865afa158015610a80573d6000803e3d6000fd5b505050506040513d601f19601f82011682018060405250810190610aa491906118f6565b610b0a576040517f08c379a000000000000000000000000000000000000000000000000000000000815260206004820152601960248201527f496e76616c696420726563697069656e742061646472657373000000000000006044820152606401610791565b600480546040517f18a9b9e100000000000000000000000000000000000000000000000000000000815260009273ffffffffffffffffffffffffffffffffffffffff909216916318a9b9e191610b64918791879101611918565b602060405180830381865afa158015610b81573d6000803e3d6000fd5b505050506040513d601f19601f82011682018060405250810190610ba5919061194f565b905060008111610c11576040517f08c379a000000000000000000000000000000000000000000000000000000000815260206004820152601460248201527f496e76616c6964206f7264657220616d6f756e740000000000000000000000006044820152606401610791565b60078054906000610c2183611968565b9190505550610c30838261115f565b506040805160808101825233815273ffffffffffffffffffffffffffffffffffffffff85811660208084019182528385018681526060850188815260075460009081526005845296909620855181549086167fffffffffffffffffffffffff00000000000000000000000000000000000000009182161782559351600182018054919096169416939093179093559151600282015592518051929392610cdc92600385019201906112e2565b505033600081815260066020908152604080832060075481546001818101845592865284862001559383526008825280832073ffffffffffffffffffffffffffffffffffffffff9890981683529690529490942080547fffffffffffffffffffffffffffffffffffffffffffffffffffffffffffffff0016909417909355505050565b6000806000606080606080600088118015610d7c57506007548811155b610de2576040517f08c379a000000000000000000000000000000000000000000000000000000000815260206004820152601060248201527f496e76616c6964206f72646572204944000000000000000000000000000000006044820152606401610791565b6000888152600560205260408120600381015490919067ffffffffffffffff811115610e1057610e10611561565b604051908082528060200260200182016040528015610e39578160200160208202803683370190505b50600383015490915060009067ffffffffffffffff811115610e5d57610e5d611561565b604051908082528060200260200182016040528015610e86578160200160208202803683370190505b50600384015490915060009067ffffffffffffffff811115610eaa57610eaa611561565b604051908082528060200260200182016040528015610edd57816020015b6060815260200190600190039081610ec85790505b50600385015490915060009067ffffffffffffffff811115610f0157610f01611561565b604051908082528060200260200182016040528015610f3457816020015b6060815260200190600190039081610f1f5790505b50905060005b60038601548110156110e257600454600187015460038801805460009384938493849373ffffffffffffffffffffffffffffffffffffffff938416936369d5f81e9316919089908110610f8f57610f8f611872565b6000918252602090912001546040517fffffffff0000000000000000000000000000000000000000000000000000000060e085901b16815273ffffffffffffffffffffffffffffffffffffffff90921660048301526024820152604401600060405180830381865afa158015611009573d6000803e3d6000fd5b505050506040513d6000823e601f3d9081017fffffffffffffffffffffffffffffffffffffffffffffffffffffffffffffffe016820160405261104f9190810190611a22565b93509350935093508389868151811061106a5761106a611872565b6020026020010181815250508288868151811061108957611089611872565b602002602001018181525050818786815181106110a8576110a8611872565b6020026020010181905250808686815181106110c6576110c6611872565b6020026020010181905250505050508080600101915050610f3a565b508454600186015460029096015473ffffffffffffffffffffffffffffffffffffffff9182169f919096169d50949b5092995090975095509350915050565b6006602052816000526040600020818154811061113d57600080fd5b90600052602060002001600091509150505481565b600b80546104049061181f565b3360008181526001602052604081205490919083908111156111dd576040517f08c379a000000000000000000000000000000000000000000000000000000000815260206004820152601360248201527f496e73756666696369656e742066756e647321000000000000000000000000006044820152606401610791565b336000908152600160205260409020546111f89085906118d0565b336000908152600160205260408082209290925573ffffffffffffffffffffffffffffffffffffffff8716815220546112329085906118e3565b73ffffffffffffffffffffffffffffffffffffffff86166000818152600160205260409081902092909255905133907fddf252ad1be2c89b69c2b068fc378daa952ba7f163c4a11628f55a4df523b3ef906112909088815260200190565b60405180910390a3506001949350505050565b33600090815260016020526040812080548392906112c29084906118e3565b92505081905550806000808282546112da91906118e3565b909155505050565b82805482825590600052602060002090810192821561131d579160200282015b8281111561131d578251825591602001919060010190611302565b5061132992915061132d565b5090565b5b80821115611329576000815560010161132e565b60005b8381101561135d578181015183820152602001611345565b50506000910152565b6000815180845261137e816020860160208601611342565b601f017fffffffffffffffffffffffffffffffffffffffffffffffffffffffffffffffe0169290920160200192915050565b6020815260006113c36020830184611366565b9392505050565b803573ffffffffffffffffffffffffffffffffffffffff811681146113ee57600080fd5b919050565b6000806040838503121561140657600080fd5b61140f836113ca565b946020939093013593505050565b60006020828403121561142f57600080fd5b6113c3826113ca565b600060208083018184528085518083526040925060408601915060408160051b8701018488016000805b84811015611516578984037fffffffffffffffffffffffffffffffffffffffffffffffffffffffffffffffc00186528251805173ffffffffffffffffffffffffffffffffffffffff908116865289820151168986015287810151888601526060908101516080918601829052805191860182905289019060a086019084905b808210156115015783518352928b0192918b0191600191909101906114e1565b50509689019694505091870191600101611462565b50919998505050505050505050565b60008060006060848603121561153a57600080fd5b611543846113ca565b9250611551602085016113ca565b9150604084013590509250925092565b7f4e487b7100000000000000000000000000000000000000000000000000000000600052604160045260246000fd5b604051601f82017fffffffffffffffffffffffffffffffffffffffffffffffffffffffffffffffe016810167ffffffffffffffff811182821017156115d7576115d7611561565b604052919050565b600080604083850312156115f257600080fd5b6115fb836113ca565b915060208084013567ffffffffffffffff8082111561161957600080fd5b818601915086601f83011261162d57600080fd5b81358181111561163f5761163f611561565b8060051b9150611650848301611590565b818152918301840191848101908984111561166a57600080fd5b938501935b838510156116885784358252938501939085019061166f565b8096505050505050509250929050565b6000602082840312156116aa57600080fd5b5035919050565b60008151808452602080850194506020840160005b838110156116e2578151875295820195908201906001016116c6565b509495945050505050565b60008282518085526020808601955060208260051b8401016020860160005b84811015611758577fffffffffffffffffffffffffffffffffffffffffffffffffffffffffffffffe0868403018952611746838351611366565b9884019892509083019060010161170c565b5090979650505050505050565b600073ffffffffffffffffffffffffffffffffffffffff808a16835280891660208401525086604083015260e060608301526117a460e08301876116b1565b82810360808401526117b681876116b1565b905082810360a08401526117ca81866116ed565b905082810360c08401526117de81856116ed565b9a9950505050505050505050565b600080604083850312156117ff57600080fd5b611808836113ca565b9150611816602084016113ca565b90509250929050565b600181811c9082168061183357607f821691505b60208210810361186c577f4e487b7100000000000000000000000000000000000000000000000000000000600052602260045260246000fd5b50919050565b7f4e487b7100000000000000000000000000000000000000000000000000000000600052603260045260246000fd5b7f4e487b7100000000000000000000000000000000000000000000000000000000600052601160045260246000fd5b818103818111156104f9576104f96118a1565b808201808211156104f9576104f96118a1565b60006020828403121561190857600080fd5b815180151581146113c357600080fd5b73ffffffffffffffffffffffffffffffffffffffff8316815260406020820152600061194760408301846116b1565b949350505050565b60006020828403121561196157600080fd5b5051919050565b60007fffffffffffffffffffffffffffffffffffffffffffffffffffffffffffffffff8203611999576119996118a1565b5060010190565b600082601f8301126119b157600080fd5b815167ffffffffffffffff8111156119cb576119cb611561565b6119fc60207fffffffffffffffffffffffffffffffffffffffffffffffffffffffffffffffe0601f84011601611590565b818152846020838601011115611a1157600080fd5b611947826020830160208701611342565b60008060008060808587031215611a3857600080fd5b8451935060208501519250604085015167ffffffffffffffff80821115611a5e57600080fd5b611a6a888389016119a0565b93506060870151915080821115611a8057600080fd5b50611a8d878288016119a0565b9150509295919450925056fea2646970667358221220a24c1d4cb93eebed1fc3955942373fe82dce4d1c18040eed07302cb301746fc964736f6c63430008180033",
  "linkReferences": {},
  "deployedLinkReferences": {}
}