{
  "_format": "hh-sol-artifact-1",
  "contractName": "Restaurant",
  "sourceName": "contracts/Restaurant.sol",
  "abi": [
    {
      "anonymous": false,
      "inputs": [
        {
          "indexed": true,
          "internalType": "address",
          "name": "restaurantID",
          "type": "address"
        },
        {
          "indexed": false,
          "internalType": "uint256",
          "name": "newBalance",
          "type": "uint256"
        }
      ],
      "name": "BalanceUpdated",
      "type": "event"
    },
    {
      "anonymous": false,
      "inputs": [
        {
          "indexed": true,
          "internalType": "address",
          "name": "restaurantID",
          "type": "address"
        },
        {
          "indexed": true,
          "internalType": "uint256",
          "name": "productID",
          "type": "uint256"
        },
        {
          "indexed": false,
          "internalType": "uint256",
          "name": "price",
          "type": "uint256"
        },
        {
          "indexed": false,
          "internalType": "string",
          "name": "description",
          "type": "string"
        },
        {
          "indexed": false,
          "internalType": "string",
          "name": "gramaj",
          "type": "string"
        }
      ],
      "name": "ProductAdded",
      "type": "event"
    },
    {
      "anonymous": false,
      "inputs": [
        {
          "indexed": true,
          "internalType": "uint256",
          "name": "restaurantID",
          "type": "uint256"
        },
        {
          "indexed": false,
          "internalType": "address",
          "name": "metaMaskID",
          "type": "address"
        },
        {
          "indexed": false,
          "internalType": "string",
          "name": "name",
          "type": "string"
        },
        {
          "indexed": false,
          "internalType": "string",
          "name": "description",
          "type": "string"
        }
      ],
      "name": "RestaurantAdded",
      "type": "event"
    },
    {
      "inputs": [
        {
          "internalType": "address",
          "name": "_restaurantAddress",
          "type": "address"
        },
        {
          "internalType": "uint256",
          "name": "_price",
          "type": "uint256"
        },
        {
          "internalType": "string",
          "name": "_description",
          "type": "string"
        },
        {
          "internalType": "string",
          "name": "_gramaj",
          "type": "string"
        }
      ],
      "name": "addProduct",
      "outputs": [],
      "stateMutability": "nonpayable",
      "type": "function"
    },
    {
      "inputs": [
        {
          "internalType": "address",
          "name": "_metaMaskID",
          "type": "address"
        },
        {
          "internalType": "string",
          "name": "_name",
          "type": "string"
        },
        {
          "internalType": "string",
          "name": "_description",
          "type": "string"
        }
      ],
      "name": "createRestaurant",
      "outputs": [],
      "stateMutability": "nonpayable",
      "type": "function"
    },
    {
      "inputs": [],
      "name": "getAllRestaurants",
      "outputs": [
        {
          "internalType": "address[]",
          "name": "restaurantAddresses",
          "type": "address[]"
        },
        {
          "internalType": "string[]",
          "name": "restaurantNames",
          "type": "string[]"
        },
        {
          "internalType": "string[]",
          "name": "restaurantDescriptions",
          "type": "string[]"
        },
        {
          "internalType": "uint256[]",
          "name": "restautrantProductCounts",
          "type": "uint256[]"
        }
      ],
      "stateMutability": "view",
      "type": "function"
    },
    {
      "inputs": [
        {
          "internalType": "address",
          "name": "_restaurantID",
          "type": "address"
        },
        {
          "internalType": "uint256",
          "name": "_productID",
          "type": "uint256"
        }
      ],
      "name": "getProduct",
      "outputs": [
        {
          "internalType": "uint256",
          "name": "productID",
          "type": "uint256"
        },
        {
          "internalType": "uint256",
          "name": "price",
          "type": "uint256"
        },
        {
          "internalType": "string",
          "name": "description",
          "type": "string"
        },
        {
          "internalType": "string",
          "name": "gramaj",
          "type": "string"
        }
      ],
      "stateMutability": "view",
      "type": "function"
    },
    {
      "inputs": [
        {
          "internalType": "address",
          "name": "_restaurantID",
          "type": "address"
        }
      ],
      "name": "getRestaurant",
      "outputs": [
        {
          "internalType": "address",
          "name": "metaMaskID",
          "type": "address"
        },
        {
          "internalType": "string",
          "name": "name",
          "type": "string"
        },
        {
          "internalType": "string",
          "name": "description",
          "type": "string"
        },
        {
          "internalType": "uint256",
          "name": "productCount",
          "type": "uint256"
        },
        {
          "components": [
            {
              "internalType": "uint256",
              "name": "productID",
              "type": "uint256"
            },
            {
              "internalType": "uint256",
              "name": "price",
              "type": "uint256"
            },
            {
              "internalType": "string",
              "name": "description",
              "type": "string"
            },
            {
              "internalType": "string",
              "name": "gramaj",
              "type": "string"
            }
          ],
          "internalType": "struct Restaurant.Product[]",
          "name": "products",
          "type": "tuple[]"
        }
      ],
      "stateMutability": "view",
      "type": "function"
    },
    {
      "inputs": [],
      "name": "getRestaurantCount",
      "outputs": [
        {
          "internalType": "uint256",
          "name": "",
          "type": "uint256"
        }
      ],
      "stateMutability": "view",
      "type": "function"
    },
    {
      "inputs": [],
      "name": "restaurantCount",
      "outputs": [
        {
          "internalType": "uint256",
          "name": "",
          "type": "uint256"
        }
      ],
      "stateMutability": "view",
      "type": "function"
    },
    {
      "inputs": [
        {
          "internalType": "address",
          "name": "_restaurantAddress",
          "type": "address"
        }
      ],
      "name": "restaurantExists",
      "outputs": [
        {
          "internalType": "bool",
          "name": "",
          "type": "bool"
        }
      ],
      "stateMutability": "view",
      "type": "function"
    },
    {
      "inputs": [
        {
          "internalType": "address",
          "name": "",
          "type": "address"
        },
        {
          "internalType": "uint256",
          "name": "",
          "type": "uint256"
        }
      ],
      "name": "restaurantProducts",
      "outputs": [
        {
          "internalType": "uint256",
          "name": "productID",
          "type": "uint256"
        },
        {
          "internalType": "uint256",
          "name": "price",
          "type": "uint256"
        },
        {
          "internalType": "string",
          "name": "description",
          "type": "string"
        },
        {
          "internalType": "string",
          "name": "gramaj",
          "type": "string"
        }
      ],
      "stateMutability": "view",
      "type": "function"
    },
    {
      "inputs": [
        {
          "internalType": "address",
          "name": "",
          "type": "address"
        }
      ],
      "name": "restaurants",
      "outputs": [
        {
          "internalType": "address",
          "name": "metaMaskID",
          "type": "address"
        },
        {
          "internalType": "string",
          "name": "name",
          "type": "string"
        },
        {
          "internalType": "string",
          "name": "description",
          "type": "string"
        },
        {
          "internalType": "uint256",
          "name": "productCount",
          "type": "uint256"
        }
      ],
      "stateMutability": "view",
      "type": "function"
    },
    {
      "inputs": [
        {
          "internalType": "uint256",
          "name": "",
          "type": "uint256"
        }
      ],
      "name": "restaurantsByIndex",
      "outputs": [
        {
          "internalType": "address",
          "name": "",
          "type": "address"
        }
      ],
      "stateMutability": "view",
      "type": "function"
    },
    {
      "inputs": [
        {
          "internalType": "address",
          "name": "_restaurantAddress",
          "type": "address"
        },
        {
          "internalType": "uint256[]",
          "name": "_productIndexes",
          "type": "uint256[]"
        }
      ],
      "name": "sumProducts",
      "outputs": [
        {
          "internalType": "uint256",
          "name": "",
          "type": "uint256"
        }
      ],
      "stateMutability": "view",
      "type": "function"
    }
  ],
  "bytecode": "0x608060405234801561001057600080fd5b50611ac1806100206000396000f3fe608060405234801561001057600080fd5b50600436106100d45760003560e01c806379a4fa2711610081578063b11b91e61161005b578063b11b91e6146101ef578063db228cf3146101f8578063dff4a5e81461025357600080fd5b806379a4fa271461018457806387734400146101cf5780639d93b640146101e757600080fd5b8063236cd7dc116100b2578063236cd7dc1461013b57806331e574a51461015e57806369d5f81e1461017157600080fd5b806309630923146100d95780630b086aa5146100ee57806318a9b9e11461011a575b600080fd5b6100ec6100e73660046112fe565b610277565b005b6101016100fc366004611372565b6103cc565b60405161011194939291906113e2565b60405180910390f35b61012d61012836600461141e565b61050f565b604051908152602001610111565b61014e6101493660046114d7565b610630565b60405161011194939291906114f9565b6100ec61016c36600461154c565b610781565b61010161017f366004611372565b6108ac565b6101bf6101923660046114d7565b73ffffffffffffffffffffffffffffffffffffffff90811660009081526001602052604090205416151590565b6040519015158152602001610111565b6101d7610a6c565b6040516101119493929190611624565b60035461012d565b61012d60035481565b61022e6102063660046116df565b60006020819052908152604090205473ffffffffffffffffffffffffffffffffffffffff1681565b60405173ffffffffffffffffffffffffffffffffffffffff9091168152602001610111565b6102666102613660046114d7565b610e3a565b6040516101119594939291906116f8565b600380549060006102878361180d565b90915550506040805160808101825273ffffffffffffffffffffffffffffffffffffffff858116808352602080840187815284860187905260006060860181905292835260019182905294909120835181547fffffffffffffffffffffffff00000000000000000000000000000000000000001693169290921782559251919290919082019061031790826118e9565b506040820151600282019061032c90826118e9565b506060919091015160039182015580546000908152602081905260409081902080547fffffffffffffffffffffffff00000000000000000000000000000000000000001673ffffffffffffffffffffffffffffffffffffffff8716179055905490517fb7e463219308d5f8cfc59cb381440084180723a5d8c1e33e4677f5d72ecd294e906103bf908690869086906119e5565b60405180910390a2505050565b60026020818152600093845260408085209091529183529120805460018201549282018054919392916103fe90611845565b80601f016020809104026020016040519081016040528092919081815260200182805461042a90611845565b80156104775780601f1061044c57610100808354040283529160200191610477565b820191906000526020600020905b81548152906001019060200180831161045a57829003601f168201915b50505050509080600301805461048c90611845565b80601f01602080910402602001604051908101604052809291908181526020018280546104b890611845565b80156105055780601f106104da57610100808354040283529160200191610505565b820191906000526020600020905b8154815290600101906020018083116104e857829003601f168201915b5050505050905084565b600080805b835181101561062657600084828151811061053157610531611a30565b60200260200101519050600081118015610573575073ffffffffffffffffffffffffffffffffffffffff86166000908152600160205260409020600301548111155b6105dd576040517f08c379a000000000000000000000000000000000000000000000000000000000815260206004820152601560248201527f496e76616c69642070726f6475637420696e6465780000000000000000000000604482015260640160405180910390fd5b73ffffffffffffffffffffffffffffffffffffffff8616600090815260026020908152604080832084845290915290206001015461061b9084611a5f565b925050600101610514565b5090505b92915050565b60016020819052600091825260409091208054918101805473ffffffffffffffffffffffffffffffffffffffff9093169261066a90611845565b80601f016020809104026020016040519081016040528092919081815260200182805461069690611845565b80156106e35780601f106106b8576101008083540402835291602001916106e3565b820191906000526020600020905b8154815290600101906020018083116106c657829003601f168201915b5050505050908060020180546106f890611845565b80601f016020809104026020016040519081016040528092919081815260200182805461072490611845565b80156107715780601f1061074657610100808354040283529160200191610771565b820191906000526020600020905b81548152906001019060200180831161075457829003601f168201915b5050505050908060030154905084565b73ffffffffffffffffffffffffffffffffffffffff841660009081526001602052604081206003018054916107b58361180d565b909155505073ffffffffffffffffffffffffffffffffffffffff841660008181526001602081815260408084206003015481516080810183528181528084018a81528184018a8152606083018a90529787526002808652848820848952909552929095208551815591519382019390935593519193919082019061083990826118e9565b506060820151600382019061084e90826118e9565b50905050808573ffffffffffffffffffffffffffffffffffffffff167f6a5ad495226363c0e50e91ca1b52d4c267480ec11cb325951972a3b57126417686868660405161089d93929190611a72565b60405180910390a35050505050565b6000806060806000600260008873ffffffffffffffffffffffffffffffffffffffff1673ffffffffffffffffffffffffffffffffffffffff1681526020019081526020016000206000878152602001908152602001600020604051806080016040529081600082015481526020016001820154815260200160028201805461093390611845565b80601f016020809104026020016040519081016040528092919081815260200182805461095f90611845565b80156109ac5780601f10610981576101008083540402835291602001916109ac565b820191906000526020600020905b81548152906001019060200180831161098f57829003601f168201915b505050505081526020016003820180546109c590611845565b80601f01602080910402602001604051908101604052809291908181526020018280546109f190611845565b8015610a3e5780601f10610a1357610100808354040283529160200191610a3e565b820191906000526020600020905b815481529060010190602001808311610a2157829003601f168201915b505050919092525050815160208301516040840151606090940151919b909a50929850965090945050505050565b60608060608060035467ffffffffffffffff811115610a8d57610a8d61122e565b604051908082528060200260200182016040528015610ab6578160200160208202803683370190505b50935060035467ffffffffffffffff811115610ad457610ad461122e565b604051908082528060200260200182016040528015610b0757816020015b6060815260200190600190039081610af25790505b50925060035467ffffffffffffffff811115610b2557610b2561122e565b604051908082528060200260200182016040528015610b5857816020015b6060815260200190600190039081610b435790505b50915060035467ffffffffffffffff811115610b7657610b7661122e565b604051908082528060200260200182016040528015610b9f578160200160208202803683370190505b50905060005b600354811015610e335760008080610bbe846001611a5f565b815260200190815260200160002060009054906101000a900473ffffffffffffffffffffffffffffffffffffffff16905080868381518110610c0257610c02611a30565b73ffffffffffffffffffffffffffffffffffffffff928316602091820292909201810191909152908216600090815260019182905260409020018054610c4790611845565b80601f0160208091040260200160405190810160405280929190818152602001828054610c7390611845565b8015610cc05780601f10610c9557610100808354040283529160200191610cc0565b820191906000526020600020905b815481529060010190602001808311610ca357829003601f168201915b5050505050858381518110610cd757610cd7611a30565b6020026020010181905250600160008273ffffffffffffffffffffffffffffffffffffffff1673ffffffffffffffffffffffffffffffffffffffff1681526020019081526020016000206002018054610d2f90611845565b80601f0160208091040260200160405190810160405280929190818152602001828054610d5b90611845565b8015610da85780601f10610d7d57610100808354040283529160200191610da8565b820191906000526020600020905b815481529060010190602001808311610d8b57829003601f168201915b5050505050848381518110610dbf57610dbf611a30565b6020026020010181905250600160008273ffffffffffffffffffffffffffffffffffffffff1673ffffffffffffffffffffffffffffffffffffffff16815260200190815260200160002060030154838381518110610e1f57610e1f611a30565b602090810291909101015250600101610ba5565b5090919293565b73ffffffffffffffffffffffffffffffffffffffff808216600090815260016020818152604080842081516080810190925280549095168152918401805493946060948594879486948694929391840191610e9490611845565b80601f0160208091040260200160405190810160405280929190818152602001828054610ec090611845565b8015610f0d5780601f10610ee257610100808354040283529160200191610f0d565b820191906000526020600020905b815481529060010190602001808311610ef057829003601f168201915b50505050508152602001600282018054610f2690611845565b80601f0160208091040260200160405190810160405280929190818152602001828054610f5290611845565b8015610f9f5780601f10610f7457610100808354040283529160200191610f9f565b820191906000526020600020905b815481529060010190602001808311610f8257829003601f168201915b5050505050815260200160038201548152505090506000816060015190508067ffffffffffffffff811115610fd657610fd661122e565b60405190808252806020026020018201604052801561103257816020015b61101f6040518060800160405280600081526020016000815260200160608152602001606081525090565b815260200190600190039081610ff45790505b50925060005b818110156111e75773ffffffffffffffffffffffffffffffffffffffff8916600090815260026020526040812090611071836001611a5f565b815260200190815260200160002060405180608001604052908160008201548152602001600182015481526020016002820180546110ae90611845565b80601f01602080910402602001604051908101604052809291908181526020018280546110da90611845565b80156111275780601f106110fc57610100808354040283529160200191611127565b820191906000526020600020905b81548152906001019060200180831161110a57829003601f168201915b5050505050815260200160038201805461114090611845565b80601f016020809104026020016040519081016040528092919081815260200182805461116c90611845565b80156111b95780601f1061118e576101008083540402835291602001916111b9565b820191906000526020600020905b81548152906001019060200180831161119c57829003601f168201915b5050505050815250508482815181106111d4576111d4611a30565b6020908102919091010152600101611038565b50815160208301516040909301519099929850965094509092509050565b803573ffffffffffffffffffffffffffffffffffffffff8116811461122957600080fd5b919050565b7f4e487b7100000000000000000000000000000000000000000000000000000000600052604160045260246000fd5b604051601f8201601f1916810167ffffffffffffffff811182821017156112865761128661122e565b604052919050565b600082601f83011261129f57600080fd5b813567ffffffffffffffff8111156112b9576112b961122e565b6112cc6020601f19601f8401160161125d565b8181528460208386010111156112e157600080fd5b816020850160208301376000918101602001919091529392505050565b60008060006060848603121561131357600080fd5b61131c84611205565b9250602084013567ffffffffffffffff8082111561133957600080fd5b6113458783880161128e565b9350604086013591508082111561135b57600080fd5b506113688682870161128e565b9150509250925092565b6000806040838503121561138557600080fd5b61138e83611205565b946020939093013593505050565b6000815180845260005b818110156113c2576020818501810151868301820152016113a6565b506000602082860101526020601f19601f83011685010191505092915050565b848152836020820152608060408201526000611401608083018561139c565b8281036060840152611413818561139c565b979650505050505050565b6000806040838503121561143157600080fd5b61143a83611205565b915060208084013567ffffffffffffffff8082111561145857600080fd5b818601915086601f83011261146c57600080fd5b81358181111561147e5761147e61122e565b8060051b915061148f84830161125d565b81815291830184019184810190898411156114a957600080fd5b938501935b838510156114c7578435825293850193908501906114ae565b8096505050505050509250929050565b6000602082840312156114e957600080fd5b6114f282611205565b9392505050565b73ffffffffffffffffffffffffffffffffffffffff85168152608060208201526000611528608083018661139c565b828103604084015261153a818661139c565b91505082606083015295945050505050565b6000806000806080858703121561156257600080fd5b61156b85611205565b935060208501359250604085013567ffffffffffffffff8082111561158f57600080fd5b61159b8883890161128e565b935060608701359150808211156115b157600080fd5b506115be8782880161128e565b91505092959194509250565b60008282518085526020808601955060208260051b8401016020860160005b8481101561161757601f1986840301895261160583835161139c565b988401989250908301906001016115e9565b5090979650505050505050565b6080808252855190820181905260009060209060a0840190828901845b8281101561167357815173ffffffffffffffffffffffffffffffffffffffff1684529284019290840190600101611641565b5050508381038285015261168781886115ca565b9050838103604085015261169b81876115ca565b8481036060860152855180825283870192509083019060005b818110156116d0578351835292840192918401916001016116b4565b50909998505050505050505050565b6000602082840312156116f157600080fd5b5035919050565b73ffffffffffffffffffffffffffffffffffffffff861681526000602060a08184015261172860a084018861139c565b6040848203604086015261173c828961139c565b91506060876060870152608086840360808801528388518086528686019150868160051b870101878b0160005b838110156117c957601f198984030185528151805184528a8101518b85015288810151878a86015261179d8886018261139c565b91890151858303868b01529190506117b5818361139c565b968c01969450505090890190600101611769565b50909f9e505050505050505050505050505050565b7f4e487b7100000000000000000000000000000000000000000000000000000000600052601160045260246000fd5b60007fffffffffffffffffffffffffffffffffffffffffffffffffffffffffffffffff820361183e5761183e6117de565b5060010190565b600181811c9082168061185957607f821691505b602082108103611892577f4e487b7100000000000000000000000000000000000000000000000000000000600052602260045260246000fd5b50919050565b601f8211156118e4576000816000526020600020601f850160051c810160208610156118c15750805b601f850160051c820191505b818110156118e0578281556001016118cd565b5050505b505050565b815167ffffffffffffffff8111156119035761190361122e565b611917816119118454611845565b84611898565b602080601f83116001811461196a57600084156119345750858301515b7fffffffffffffffffffffffffffffffffffffffffffffffffffffffffffffffff600386901b1c1916600185901b1785556118e0565b600085815260208120601f198616915b828110156119995788860151825594840194600190910190840161197a565b50858210156119d557878501517fffffffffffffffffffffffffffffffffffffffffffffffffffffffffffffffff600388901b60f8161c191681555b5050505050600190811b01905550565b73ffffffffffffffffffffffffffffffffffffffff84168152606060208201526000611a14606083018561139c565b8281036040840152611a26818561139c565b9695505050505050565b7f4e487b7100000000000000000000000000000000000000000000000000000000600052603260045260246000fd5b8082018082111561062a5761062a6117de565b838152606060208201526000611a14606083018561139c56fea26469706673582212203f3b87c532b043e75a5d3f4f5f8314e0bd011f82f90d17993a3b95d183f50a2964736f6c63430008180033",
  "linkReferences": {},
  "deployedLinkReferences": {}
}