{
  "_format": "hh-sol-artifact-1",
  "contractName": "Restaurant",
  "sourceName": "contracts/Restaurant.sol",
  "abi": [
    {
      "anonymous": false,
      "inputs": [
        {
          "indexed": true,
          "internalType": "address",
          "name": "restaurantID",
          "type": "address"
        },
        {
          "indexed": false,
          "internalType": "uint256",
          "name": "newBalance",
          "type": "uint256"
        }
      ],
      "name": "BalanceUpdated",
      "type": "event"
    },
    {
      "anonymous": false,
      "inputs": [
        {
          "indexed": true,
          "internalType": "address",
          "name": "restaurantID",
          "type": "address"
        },
        {
          "indexed": true,
          "internalType": "uint256",
          "name": "productID",
          "type": "uint256"
        },
        {
          "indexed": false,
          "internalType": "uint256",
          "name": "price",
          "type": "uint256"
        },
        {
          "indexed": false,
          "internalType": "string",
          "name": "description",
          "type": "string"
        },
        {
          "indexed": false,
          "internalType": "string",
          "name": "gramaj",
          "type": "string"
        }
      ],
      "name": "ProductAdded",
      "type": "event"
    },
    {
      "anonymous": false,
      "inputs": [
        {
          "indexed": true,
          "internalType": "uint256",
          "name": "restaurantID",
          "type": "uint256"
        },
        {
          "indexed": false,
          "internalType": "address",
          "name": "metaMaskID",
          "type": "address"
        },
        {
          "indexed": false,
          "internalType": "string",
          "name": "name",
          "type": "string"
        },
        {
          "indexed": false,
          "internalType": "string",
          "name": "description",
          "type": "string"
        }
      ],
      "name": "RestaurantAdded",
      "type": "event"
    },
    {
      "inputs": [
        {
          "internalType": "address",
          "name": "_restaurantAddress",
          "type": "address"
        },
        {
          "internalType": "uint256",
          "name": "_price",
          "type": "uint256"
        },
        {
          "internalType": "string",
          "name": "_description",
          "type": "string"
        },
        {
          "internalType": "string",
          "name": "_gramaj",
          "type": "string"
        }
      ],
      "name": "addProduct",
      "outputs": [],
      "stateMutability": "nonpayable",
      "type": "function"
    },
    {
      "inputs": [
        {
          "internalType": "address",
          "name": "_metaMaskID",
          "type": "address"
        },
        {
          "internalType": "string",
          "name": "_name",
          "type": "string"
        },
        {
          "internalType": "string",
          "name": "_description",
          "type": "string"
        }
      ],
      "name": "createRestaurant",
      "outputs": [],
      "stateMutability": "nonpayable",
      "type": "function"
    },
    {
      "inputs": [],
      "name": "getAllRestaurants",
      "outputs": [
        {
          "internalType": "string[]",
          "name": "restaurantNames",
          "type": "string[]"
        },
        {
          "internalType": "string[]",
          "name": "restaurantDescriptions",
          "type": "string[]"
        }
      ],
      "stateMutability": "view",
      "type": "function"
    },
    {
      "inputs": [
        {
          "internalType": "address",
          "name": "_restaurantID",
          "type": "address"
        },
        {
          "internalType": "uint256",
          "name": "_productID",
          "type": "uint256"
        }
      ],
      "name": "getProduct",
      "outputs": [
        {
          "internalType": "uint256",
          "name": "productID",
          "type": "uint256"
        },
        {
          "internalType": "uint256",
          "name": "price",
          "type": "uint256"
        },
        {
          "internalType": "string",
          "name": "description",
          "type": "string"
        },
        {
          "internalType": "string",
          "name": "gramaj",
          "type": "string"
        }
      ],
      "stateMutability": "view",
      "type": "function"
    },
    {
      "inputs": [
        {
          "internalType": "address",
          "name": "_restaurantID",
          "type": "address"
        }
      ],
      "name": "getRestaurant",
      "outputs": [
        {
          "internalType": "address",
          "name": "metaMaskID",
          "type": "address"
        },
        {
          "internalType": "string",
          "name": "name",
          "type": "string"
        },
        {
          "internalType": "string",
          "name": "description",
          "type": "string"
        },
        {
          "internalType": "uint256",
          "name": "productCount",
          "type": "uint256"
        },
        {
          "components": [
            {
              "internalType": "uint256",
              "name": "productID",
              "type": "uint256"
            },
            {
              "internalType": "uint256",
              "name": "price",
              "type": "uint256"
            },
            {
              "internalType": "string",
              "name": "description",
              "type": "string"
            },
            {
              "internalType": "string",
              "name": "gramaj",
              "type": "string"
            }
          ],
          "internalType": "struct Restaurant.Product[]",
          "name": "products",
          "type": "tuple[]"
        }
      ],
      "stateMutability": "view",
      "type": "function"
    },
    {
      "inputs": [],
      "name": "getRestaurantCount",
      "outputs": [
        {
          "internalType": "uint256",
          "name": "",
          "type": "uint256"
        }
      ],
      "stateMutability": "view",
      "type": "function"
    },
    {
      "inputs": [],
      "name": "restaurantCount",
      "outputs": [
        {
          "internalType": "uint256",
          "name": "",
          "type": "uint256"
        }
      ],
      "stateMutability": "view",
      "type": "function"
    },
    {
      "inputs": [
        {
          "internalType": "address",
          "name": "_restaurantAddress",
          "type": "address"
        }
      ],
      "name": "restaurantExists",
      "outputs": [
        {
          "internalType": "bool",
          "name": "",
          "type": "bool"
        }
      ],
      "stateMutability": "view",
      "type": "function"
    },
    {
      "inputs": [
        {
          "internalType": "address",
          "name": "",
          "type": "address"
        },
        {
          "internalType": "uint256",
          "name": "",
          "type": "uint256"
        }
      ],
      "name": "restaurantProducts",
      "outputs": [
        {
          "internalType": "uint256",
          "name": "productID",
          "type": "uint256"
        },
        {
          "internalType": "uint256",
          "name": "price",
          "type": "uint256"
        },
        {
          "internalType": "string",
          "name": "description",
          "type": "string"
        },
        {
          "internalType": "string",
          "name": "gramaj",
          "type": "string"
        }
      ],
      "stateMutability": "view",
      "type": "function"
    },
    {
      "inputs": [
        {
          "internalType": "address",
          "name": "",
          "type": "address"
        }
      ],
      "name": "restaurants",
      "outputs": [
        {
          "internalType": "address",
          "name": "metaMaskID",
          "type": "address"
        },
        {
          "internalType": "string",
          "name": "name",
          "type": "string"
        },
        {
          "internalType": "string",
          "name": "description",
          "type": "string"
        },
        {
          "internalType": "uint256",
          "name": "productCount",
          "type": "uint256"
        }
      ],
      "stateMutability": "view",
      "type": "function"
    },
    {
      "inputs": [
        {
          "internalType": "uint256",
          "name": "",
          "type": "uint256"
        }
      ],
      "name": "restaurantsByIndex",
      "outputs": [
        {
          "internalType": "address",
          "name": "",
          "type": "address"
        }
      ],
      "stateMutability": "view",
      "type": "function"
    },
    {
      "inputs": [
        {
          "internalType": "address",
          "name": "_restaurantAddress",
          "type": "address"
        },
        {
          "internalType": "uint256[]",
          "name": "_productIndexes",
          "type": "uint256[]"
        }
      ],
      "name": "sumProducts",
      "outputs": [
        {
          "internalType": "uint256",
          "name": "",
          "type": "uint256"
        }
      ],
      "stateMutability": "view",
      "type": "function"
    }
  ],
  "bytecode": "0x608060405234801561001057600080fd5b50611900806100206000396000f3fe608060405234801561001057600080fd5b50600436106100d45760003560e01c806379a4fa2711610081578063b11b91e61161005b578063b11b91e6146101ed578063db228cf3146101f6578063dff4a5e81461025157600080fd5b806379a4fa271461018457806387734400146101cf5780639d93b640146101e557600080fd5b8063236cd7dc116100b2578063236cd7dc1461013b57806331e574a51461015e57806369d5f81e1461017157600080fd5b806309630923146100d95780630b086aa5146100ee57806318a9b9e11461011a575b600080fd5b6100ec6100e73660046111ca565b610275565b005b6101016100fc36600461123e565b6103ca565b60405161011194939291906112ae565b60405180910390f35b61012d6101283660046112ea565b61050d565b604051908152602001610111565b61014e6101493660046113a3565b61062e565b60405161011194939291906113c5565b6100ec61016c366004611418565b61077f565b61010161017f36600461123e565b6108aa565b6101bf6101923660046113a3565b73ffffffffffffffffffffffffffffffffffffffff90811660009081526001602052604090205416151590565b6040519015158152602001610111565b6101d7610a6a565b6040516101119291906114f0565b60035461012d565b61012d60035481565b61022c61020436600461151e565b60006020819052908152604090205473ffffffffffffffffffffffffffffffffffffffff1681565b60405173ffffffffffffffffffffffffffffffffffffffff9091168152602001610111565b61026461025f3660046113a3565b610d06565b604051610111959493929190611537565b600380549060006102858361164c565b90915550506040805160808101825273ffffffffffffffffffffffffffffffffffffffff858116808352602080840187815284860187905260006060860181905292835260019182905294909120835181547fffffffffffffffffffffffff0000000000000000000000000000000000000000169316929092178255925191929091908201906103159082611728565b506040820151600282019061032a9082611728565b506060919091015160039182015580546000908152602081905260409081902080547fffffffffffffffffffffffff00000000000000000000000000000000000000001673ffffffffffffffffffffffffffffffffffffffff8716179055905490517fb7e463219308d5f8cfc59cb381440084180723a5d8c1e33e4677f5d72ecd294e906103bd90869086908690611824565b60405180910390a2505050565b60026020818152600093845260408085209091529183529120805460018201549282018054919392916103fc90611684565b80601f016020809104026020016040519081016040528092919081815260200182805461042890611684565b80156104755780601f1061044a57610100808354040283529160200191610475565b820191906000526020600020905b81548152906001019060200180831161045857829003601f168201915b50505050509080600301805461048a90611684565b80601f01602080910402602001604051908101604052809291908181526020018280546104b690611684565b80156105035780601f106104d857610100808354040283529160200191610503565b820191906000526020600020905b8154815290600101906020018083116104e657829003601f168201915b5050505050905084565b600080805b835181101561062457600084828151811061052f5761052f61186f565b60200260200101519050600081118015610571575073ffffffffffffffffffffffffffffffffffffffff86166000908152600160205260409020600301548111155b6105db576040517f08c379a000000000000000000000000000000000000000000000000000000000815260206004820152601560248201527f496e76616c69642070726f6475637420696e6465780000000000000000000000604482015260640160405180910390fd5b73ffffffffffffffffffffffffffffffffffffffff86166000908152600260209081526040808320848452909152902060010154610619908461189e565b925050600101610512565b5090505b92915050565b60016020819052600091825260409091208054918101805473ffffffffffffffffffffffffffffffffffffffff9093169261066890611684565b80601f016020809104026020016040519081016040528092919081815260200182805461069490611684565b80156106e15780601f106106b6576101008083540402835291602001916106e1565b820191906000526020600020905b8154815290600101906020018083116106c457829003601f168201915b5050505050908060020180546106f690611684565b80601f016020809104026020016040519081016040528092919081815260200182805461072290611684565b801561076f5780601f106107445761010080835404028352916020019161076f565b820191906000526020600020905b81548152906001019060200180831161075257829003601f168201915b5050505050908060030154905084565b73ffffffffffffffffffffffffffffffffffffffff841660009081526001602052604081206003018054916107b38361164c565b909155505073ffffffffffffffffffffffffffffffffffffffff841660008181526001602081815260408084206003015481516080810183528181528084018a81528184018a8152606083018a9052978752600280865284882084895290955292909520855181559151938201939093559351919391908201906108379082611728565b506060820151600382019061084c9082611728565b50905050808573ffffffffffffffffffffffffffffffffffffffff167f6a5ad495226363c0e50e91ca1b52d4c267480ec11cb325951972a3b57126417686868660405161089b939291906118b1565b60405180910390a35050505050565b6000806060806000600260008873ffffffffffffffffffffffffffffffffffffffff1673ffffffffffffffffffffffffffffffffffffffff1681526020019081526020016000206000878152602001908152602001600020604051806080016040529081600082015481526020016001820154815260200160028201805461093190611684565b80601f016020809104026020016040519081016040528092919081815260200182805461095d90611684565b80156109aa5780601f1061097f576101008083540402835291602001916109aa565b820191906000526020600020905b81548152906001019060200180831161098d57829003601f168201915b505050505081526020016003820180546109c390611684565b80601f01602080910402602001604051908101604052809291908181526020018280546109ef90611684565b8015610a3c5780601f10610a1157610100808354040283529160200191610a3c565b820191906000526020600020905b815481529060010190602001808311610a1f57829003601f168201915b505050919092525050815160208301516040840151606090940151919b909a50929850965090945050505050565b60608060035467ffffffffffffffff811115610a8857610a886110fa565b604051908082528060200260200182016040528015610abb57816020015b6060815260200190600190039081610aa65790505b50915060035467ffffffffffffffff811115610ad957610ad96110fa565b604051908082528060200260200182016040528015610b0c57816020015b6060815260200190600190039081610af75790505b50905060005b600354811015610d015760008080610b2b84600161189e565b8152602080820192909252604090810160009081205473ffffffffffffffffffffffffffffffffffffffff16808252600193849052919020909101805491925090610b7590611684565b80601f0160208091040260200160405190810160405280929190818152602001828054610ba190611684565b8015610bee5780601f10610bc357610100808354040283529160200191610bee565b820191906000526020600020905b815481529060010190602001808311610bd157829003601f168201915b5050505050848381518110610c0557610c0561186f565b6020026020010181905250600160008273ffffffffffffffffffffffffffffffffffffffff1673ffffffffffffffffffffffffffffffffffffffff1681526020019081526020016000206002018054610c5d90611684565b80601f0160208091040260200160405190810160405280929190818152602001828054610c8990611684565b8015610cd65780601f10610cab57610100808354040283529160200191610cd6565b820191906000526020600020905b815481529060010190602001808311610cb957829003601f168201915b5050505050838381518110610ced57610ced61186f565b602090810291909101015250600101610b12565b509091565b73ffffffffffffffffffffffffffffffffffffffff808216600090815260016020818152604080842081516080810190925280549095168152918401805493946060948594879486948694929391840191610d6090611684565b80601f0160208091040260200160405190810160405280929190818152602001828054610d8c90611684565b8015610dd95780601f10610dae57610100808354040283529160200191610dd9565b820191906000526020600020905b815481529060010190602001808311610dbc57829003601f168201915b50505050508152602001600282018054610df290611684565b80601f0160208091040260200160405190810160405280929190818152602001828054610e1e90611684565b8015610e6b5780601f10610e4057610100808354040283529160200191610e6b565b820191906000526020600020905b815481529060010190602001808311610e4e57829003601f168201915b5050505050815260200160038201548152505090506000816060015190508067ffffffffffffffff811115610ea257610ea26110fa565b604051908082528060200260200182016040528015610efe57816020015b610eeb6040518060800160405280600081526020016000815260200160608152602001606081525090565b815260200190600190039081610ec05790505b50925060005b818110156110b35773ffffffffffffffffffffffffffffffffffffffff8916600090815260026020526040812090610f3d83600161189e565b81526020019081526020016000206040518060800160405290816000820154815260200160018201548152602001600282018054610f7a90611684565b80601f0160208091040260200160405190810160405280929190818152602001828054610fa690611684565b8015610ff35780601f10610fc857610100808354040283529160200191610ff3565b820191906000526020600020905b815481529060010190602001808311610fd657829003601f168201915b5050505050815260200160038201805461100c90611684565b80601f016020809104026020016040519081016040528092919081815260200182805461103890611684565b80156110855780601f1061105a57610100808354040283529160200191611085565b820191906000526020600020905b81548152906001019060200180831161106857829003601f168201915b5050505050815250508482815181106110a0576110a061186f565b6020908102919091010152600101610f04565b50815160208301516040909301519099929850965094509092509050565b803573ffffffffffffffffffffffffffffffffffffffff811681146110f557600080fd5b919050565b7f4e487b7100000000000000000000000000000000000000000000000000000000600052604160045260246000fd5b604051601f8201601f1916810167ffffffffffffffff81118282101715611152576111526110fa565b604052919050565b600082601f83011261116b57600080fd5b813567ffffffffffffffff811115611185576111856110fa565b6111986020601f19601f84011601611129565b8181528460208386010111156111ad57600080fd5b816020850160208301376000918101602001919091529392505050565b6000806000606084860312156111df57600080fd5b6111e8846110d1565b9250602084013567ffffffffffffffff8082111561120557600080fd5b6112118783880161115a565b9350604086013591508082111561122757600080fd5b506112348682870161115a565b9150509250925092565b6000806040838503121561125157600080fd5b61125a836110d1565b946020939093013593505050565b6000815180845260005b8181101561128e57602081850181015186830182015201611272565b506000602082860101526020601f19601f83011685010191505092915050565b8481528360208201526080604082015260006112cd6080830185611268565b82810360608401526112df8185611268565b979650505050505050565b600080604083850312156112fd57600080fd5b611306836110d1565b915060208084013567ffffffffffffffff8082111561132457600080fd5b818601915086601f83011261133857600080fd5b81358181111561134a5761134a6110fa565b8060051b915061135b848301611129565b818152918301840191848101908984111561137557600080fd5b938501935b838510156113935784358252938501939085019061137a565b8096505050505050509250929050565b6000602082840312156113b557600080fd5b6113be826110d1565b9392505050565b73ffffffffffffffffffffffffffffffffffffffff851681526080602082015260006113f46080830186611268565b82810360408401526114068186611268565b91505082606083015295945050505050565b6000806000806080858703121561142e57600080fd5b611437856110d1565b935060208501359250604085013567ffffffffffffffff8082111561145b57600080fd5b6114678883890161115a565b9350606087013591508082111561147d57600080fd5b5061148a8782880161115a565b91505092959194509250565b60008282518085526020808601955060208260051b8401016020860160005b848110156114e357601f198684030189526114d1838351611268565b988401989250908301906001016114b5565b5090979650505050505050565b6040815260006115036040830185611496565b82810360208401526115158185611496565b95945050505050565b60006020828403121561153057600080fd5b5035919050565b73ffffffffffffffffffffffffffffffffffffffff861681526000602060a08184015261156760a0840188611268565b6040848203604086015261157b8289611268565b91506060876060870152608086840360808801528388518086528686019150868160051b870101878b0160005b8381101561160857601f198984030185528151805184528a8101518b85015288810151878a8601526115dc88860182611268565b91890151858303868b01529190506115f48183611268565b968c019694505050908901906001016115a8565b50909f9e505050505050505050505050505050565b7f4e487b7100000000000000000000000000000000000000000000000000000000600052601160045260246000fd5b60007fffffffffffffffffffffffffffffffffffffffffffffffffffffffffffffffff820361167d5761167d61161d565b5060010190565b600181811c9082168061169857607f821691505b6020821081036116d1577f4e487b7100000000000000000000000000000000000000000000000000000000600052602260045260246000fd5b50919050565b601f821115611723576000816000526020600020601f850160051c810160208610156117005750805b601f850160051c820191505b8181101561171f5782815560010161170c565b5050505b505050565b815167ffffffffffffffff811115611742576117426110fa565b611756816117508454611684565b846116d7565b602080601f8311600181146117a957600084156117735750858301515b7fffffffffffffffffffffffffffffffffffffffffffffffffffffffffffffffff600386901b1c1916600185901b17855561171f565b600085815260208120601f198616915b828110156117d8578886015182559484019460019091019084016117b9565b508582101561181457878501517fffffffffffffffffffffffffffffffffffffffffffffffffffffffffffffffff600388901b60f8161c191681555b5050505050600190811b01905550565b73ffffffffffffffffffffffffffffffffffffffff841681526060602082015260006118536060830185611268565b82810360408401526118658185611268565b9695505050505050565b7f4e487b7100000000000000000000000000000000000000000000000000000000600052603260045260246000fd5b808201808211156106285761062861161d565b838152606060208201526000611853606083018561126856fea2646970667358221220746302f2db883ba9a50763b93391bbbe95a0e932dba87f86d24ae006f985184a64736f6c63430008180033",
  "linkReferences": {},
  "deployedLinkReferences": {}
}