{
  "_format": "hh-sol-artifact-1",
  "contractName": "Restaurant",
  "sourceName": "contracts/Restaurant.sol",
  "abi": [
    {
      "anonymous": false,
      "inputs": [
        {
          "indexed": true,
          "internalType": "address",
          "name": "restaurantID",
          "type": "address"
        },
        {
          "indexed": false,
          "internalType": "uint256",
          "name": "newBalance",
          "type": "uint256"
        }
      ],
      "name": "BalanceUpdated",
      "type": "event"
    },
    {
      "anonymous": false,
      "inputs": [
        {
          "indexed": true,
          "internalType": "address",
          "name": "restaurantID",
          "type": "address"
        },
        {
          "indexed": false,
          "internalType": "string",
          "name": "name",
          "type": "string"
        },
        {
          "indexed": true,
          "internalType": "uint256",
          "name": "productID",
          "type": "uint256"
        },
        {
          "indexed": false,
          "internalType": "uint256",
          "name": "price",
          "type": "uint256"
        },
        {
          "indexed": false,
          "internalType": "string",
          "name": "description",
          "type": "string"
        },
        {
          "indexed": false,
          "internalType": "string",
          "name": "gramaj",
          "type": "string"
        }
      ],
      "name": "ProductAdded",
      "type": "event"
    },
    {
      "anonymous": false,
      "inputs": [
        {
          "indexed": true,
          "internalType": "uint256",
          "name": "restaurantID",
          "type": "uint256"
        },
        {
          "indexed": false,
          "internalType": "address",
          "name": "metaMaskID",
          "type": "address"
        },
        {
          "indexed": false,
          "internalType": "string",
          "name": "name",
          "type": "string"
        },
        {
          "indexed": false,
          "internalType": "string",
          "name": "description",
          "type": "string"
        }
      ],
      "name": "RestaurantAdded",
      "type": "event"
    },
    {
      "inputs": [
        {
          "internalType": "address",
          "name": "_restaurantAddress",
          "type": "address"
        },
        {
          "internalType": "string",
          "name": "_name",
          "type": "string"
        },
        {
          "internalType": "uint256",
          "name": "_price",
          "type": "uint256"
        },
        {
          "internalType": "string",
          "name": "_description",
          "type": "string"
        },
        {
          "internalType": "string",
          "name": "_gramaj",
          "type": "string"
        }
      ],
      "name": "addProduct",
      "outputs": [],
      "stateMutability": "nonpayable",
      "type": "function"
    },
    {
      "inputs": [
        {
          "internalType": "address",
          "name": "_metaMaskID",
          "type": "address"
        },
        {
          "internalType": "string",
          "name": "_name",
          "type": "string"
        },
        {
          "internalType": "string",
          "name": "_description",
          "type": "string"
        }
      ],
      "name": "createRestaurant",
      "outputs": [],
      "stateMutability": "nonpayable",
      "type": "function"
    },
    {
      "inputs": [],
      "name": "getAllRestaurants",
      "outputs": [
        {
          "internalType": "address[]",
          "name": "restaurantAddresses",
          "type": "address[]"
        },
        {
          "internalType": "string[]",
          "name": "restaurantNames",
          "type": "string[]"
        },
        {
          "internalType": "string[]",
          "name": "restaurantDescriptions",
          "type": "string[]"
        },
        {
          "internalType": "uint256[]",
          "name": "restautrantProductCounts",
          "type": "uint256[]"
        }
      ],
      "stateMutability": "view",
      "type": "function"
    },
    {
      "inputs": [
        {
          "internalType": "address",
          "name": "_restaurantID",
          "type": "address"
        },
        {
          "internalType": "uint256",
          "name": "_productID",
          "type": "uint256"
        }
      ],
      "name": "getProduct",
      "outputs": [
        {
          "internalType": "uint256",
          "name": "productID",
          "type": "uint256"
        },
        {
          "internalType": "string",
          "name": "name",
          "type": "string"
        },
        {
          "internalType": "uint256",
          "name": "price",
          "type": "uint256"
        },
        {
          "internalType": "string",
          "name": "description",
          "type": "string"
        },
        {
          "internalType": "string",
          "name": "gramaj",
          "type": "string"
        }
      ],
      "stateMutability": "view",
      "type": "function"
    },
    {
      "inputs": [
        {
          "internalType": "address",
          "name": "_restaurantID",
          "type": "address"
        }
      ],
      "name": "getRestaurant",
      "outputs": [
        {
          "internalType": "address",
          "name": "metaMaskID",
          "type": "address"
        },
        {
          "internalType": "string",
          "name": "name",
          "type": "string"
        },
        {
          "internalType": "string",
          "name": "description",
          "type": "string"
        },
        {
          "internalType": "uint256",
          "name": "productCount",
          "type": "uint256"
        },
        {
          "components": [
            {
              "internalType": "uint256",
              "name": "productID",
              "type": "uint256"
            },
            {
              "internalType": "string",
              "name": "name",
              "type": "string"
            },
            {
              "internalType": "uint256",
              "name": "price",
              "type": "uint256"
            },
            {
              "internalType": "string",
              "name": "description",
              "type": "string"
            },
            {
              "internalType": "string",
              "name": "gramaj",
              "type": "string"
            }
          ],
          "internalType": "struct Restaurant.Product[]",
          "name": "products",
          "type": "tuple[]"
        }
      ],
      "stateMutability": "view",
      "type": "function"
    },
    {
      "inputs": [],
      "name": "getRestaurantCount",
      "outputs": [
        {
          "internalType": "uint256",
          "name": "",
          "type": "uint256"
        }
      ],
      "stateMutability": "view",
      "type": "function"
    },
    {
      "inputs": [],
      "name": "restaurantCount",
      "outputs": [
        {
          "internalType": "uint256",
          "name": "",
          "type": "uint256"
        }
      ],
      "stateMutability": "view",
      "type": "function"
    },
    {
      "inputs": [
        {
          "internalType": "address",
          "name": "_restaurantAddress",
          "type": "address"
        }
      ],
      "name": "restaurantExists",
      "outputs": [
        {
          "internalType": "bool",
          "name": "",
          "type": "bool"
        }
      ],
      "stateMutability": "view",
      "type": "function"
    },
    {
      "inputs": [
        {
          "internalType": "address",
          "name": "",
          "type": "address"
        },
        {
          "internalType": "uint256",
          "name": "",
          "type": "uint256"
        }
      ],
      "name": "restaurantProducts",
      "outputs": [
        {
          "internalType": "uint256",
          "name": "productID",
          "type": "uint256"
        },
        {
          "internalType": "string",
          "name": "name",
          "type": "string"
        },
        {
          "internalType": "uint256",
          "name": "price",
          "type": "uint256"
        },
        {
          "internalType": "string",
          "name": "description",
          "type": "string"
        },
        {
          "internalType": "string",
          "name": "gramaj",
          "type": "string"
        }
      ],
      "stateMutability": "view",
      "type": "function"
    },
    {
      "inputs": [
        {
          "internalType": "address",
          "name": "",
          "type": "address"
        }
      ],
      "name": "restaurants",
      "outputs": [
        {
          "internalType": "address",
          "name": "metaMaskID",
          "type": "address"
        },
        {
          "internalType": "string",
          "name": "name",
          "type": "string"
        },
        {
          "internalType": "string",
          "name": "description",
          "type": "string"
        },
        {
          "internalType": "uint256",
          "name": "productCount",
          "type": "uint256"
        }
      ],
      "stateMutability": "view",
      "type": "function"
    },
    {
      "inputs": [
        {
          "internalType": "uint256",
          "name": "",
          "type": "uint256"
        }
      ],
      "name": "restaurantsByIndex",
      "outputs": [
        {
          "internalType": "address",
          "name": "",
          "type": "address"
        }
      ],
      "stateMutability": "view",
      "type": "function"
    },
    {
      "inputs": [
        {
          "internalType": "address",
          "name": "_restaurantAddress",
          "type": "address"
        },
        {
          "internalType": "uint256[]",
          "name": "_productIndexes",
          "type": "uint256[]"
        }
      ],
      "name": "sumProducts",
      "outputs": [
        {
          "internalType": "uint256",
          "name": "",
          "type": "uint256"
        }
      ],
      "stateMutability": "view",
      "type": "function"
    }
  ],
  "bytecode": "0x608060405234801561001057600080fd5b50611d2d806100206000396000f3fe608060405234801561001057600080fd5b50600436106100d45760003560e01c806379a4fa2711610081578063b11b91e61161005b578063b11b91e6146101f0578063db228cf3146101f9578063dff4a5e81461025457600080fd5b806379a4fa271461018557806387734400146101d05780639d93b640146101e857600080fd5b806318a9b9e1116100b257806318a9b9e11461012e578063236cd7dc1461014f57806369d5f81e1461017257600080fd5b806309630923146100d95780630b086aa5146100ee578063103548391461011b575b600080fd5b6100ec6100e73660046114e1565b610278565b005b6101016100fc366004611555565b6103cd565b6040516101129594939291906115c5565b60405180910390f35b6100ec610129366004611616565b61059f565b61014161013c3660046116b9565b6106e9565b604051908152602001610112565b61016261015d366004611772565b610809565b6040516101129493929190611794565b610101610180366004611555565b61095a565b6101c0610193366004611772565b73ffffffffffffffffffffffffffffffffffffffff90811660009081526001602052604090205416151590565b6040519015158152602001610112565b6101d8610bb6565b6040516101129493929190611841565b600354610141565b61014160035481565b61022f6102073660046118fc565b60006020819052908152604090205473ffffffffffffffffffffffffffffffffffffffff1681565b60405173ffffffffffffffffffffffffffffffffffffffff9091168152602001610112565b610267610262366004611772565b610f84565b604051610112959493929190611915565b6003805490600061028883611a48565b90915550506040805160808101825273ffffffffffffffffffffffffffffffffffffffff858116808352602080840187815284860187905260006060860181905292835260019182905294909120835181547fffffffffffffffffffffffff0000000000000000000000000000000000000000169316929092178255925191929091908201906103189082611b24565b506040820151600282019061032d9082611b24565b506060919091015160039182015580546000908152602081905260409081902080547fffffffffffffffffffffffff00000000000000000000000000000000000000001673ffffffffffffffffffffffffffffffffffffffff8716179055905490517fb7e463219308d5f8cfc59cb381440084180723a5d8c1e33e4677f5d72ecd294e906103c090869086908690611c20565b60405180910390a2505050565b6002602090815260009283526040808420909152908252902080546001820180549192916103fa90611a80565b80601f016020809104026020016040519081016040528092919081815260200182805461042690611a80565b80156104735780601f1061044857610100808354040283529160200191610473565b820191906000526020600020905b81548152906001019060200180831161045657829003601f168201915b50505050509080600201549080600301805461048e90611a80565b80601f01602080910402602001604051908101604052809291908181526020018280546104ba90611a80565b80156105075780601f106104dc57610100808354040283529160200191610507565b820191906000526020600020905b8154815290600101906020018083116104ea57829003601f168201915b50505050509080600401805461051c90611a80565b80601f016020809104026020016040519081016040528092919081815260200182805461054890611a80565b80156105955780601f1061056a57610100808354040283529160200191610595565b820191906000526020600020905b81548152906001019060200180831161057857829003601f168201915b5050505050905085565b73ffffffffffffffffffffffffffffffffffffffff851660009081526001602052604081206003018054916105d383611a48565b909155505073ffffffffffffffffffffffffffffffffffffffff8516600081815260016020818152604080842060030154815160a0810183528181528084018b81528184018b9052606082018a9052608082018990529686526002845282862082875290935293208151815593519293909290918201906106549082611b24565b5060408201516002820155606082015160038201906106739082611b24565b50608082015160048201906106889082611b24565b50905050808673ffffffffffffffffffffffffffffffffffffffff167ffd19e028364f26def51953247a5cb46f91c5a012e6605801e457346bde75ee4f878787876040516106d99493929190611c6b565b60405180910390a3505050505050565b600080805b83518110156107ff57600084828151811061070b5761070b611cb5565b6020026020010151905060008111801561074d575073ffffffffffffffffffffffffffffffffffffffff86166000908152600160205260409020600301548111155b6107b7576040517f08c379a000000000000000000000000000000000000000000000000000000000815260206004820152601560248201527f496e76616c69642070726f6475637420696e6465780000000000000000000000604482015260640160405180910390fd5b73ffffffffffffffffffffffffffffffffffffffff8616600090815260026020818152604080842085855290915290912001546107f49084611ce4565b9250506001016106ee565b5090505b92915050565b60016020819052600091825260409091208054918101805473ffffffffffffffffffffffffffffffffffffffff9093169261084390611a80565b80601f016020809104026020016040519081016040528092919081815260200182805461086f90611a80565b80156108bc5780601f10610891576101008083540402835291602001916108bc565b820191906000526020600020905b81548152906001019060200180831161089f57829003601f168201915b5050505050908060020180546108d190611a80565b80601f01602080910402602001604051908101604052809291908181526020018280546108fd90611a80565b801561094a5780601f1061091f5761010080835404028352916020019161094a565b820191906000526020600020905b81548152906001019060200180831161092d57829003601f168201915b5050505050908060030154905084565b6000606060006060806000600260008973ffffffffffffffffffffffffffffffffffffffff1673ffffffffffffffffffffffffffffffffffffffff16815260200190815260200160002060008881526020019081526020016000206040518060a0016040529081600082015481526020016001820180546109da90611a80565b80601f0160208091040260200160405190810160405280929190818152602001828054610a0690611a80565b8015610a535780601f10610a2857610100808354040283529160200191610a53565b820191906000526020600020905b815481529060010190602001808311610a3657829003601f168201915b5050505050815260200160028201548152602001600382018054610a7690611a80565b80601f0160208091040260200160405190810160405280929190818152602001828054610aa290611a80565b8015610aef5780601f10610ac457610100808354040283529160200191610aef565b820191906000526020600020905b815481529060010190602001808311610ad257829003601f168201915b50505050508152602001600482018054610b0890611a80565b80601f0160208091040260200160405190810160405280929190818152602001828054610b3490611a80565b8015610b815780601f10610b5657610100808354040283529160200191610b81565b820191906000526020600020905b815481529060010190602001808311610b6457829003601f168201915b5050509190925250508151602083015160408401516060850151608090950151929d919c509a50929850965090945050505050565b60608060608060035467ffffffffffffffff811115610bd757610bd7611411565b604051908082528060200260200182016040528015610c00578160200160208202803683370190505b50935060035467ffffffffffffffff811115610c1e57610c1e611411565b604051908082528060200260200182016040528015610c5157816020015b6060815260200190600190039081610c3c5790505b50925060035467ffffffffffffffff811115610c6f57610c6f611411565b604051908082528060200260200182016040528015610ca257816020015b6060815260200190600190039081610c8d5790505b50915060035467ffffffffffffffff811115610cc057610cc0611411565b604051908082528060200260200182016040528015610ce9578160200160208202803683370190505b50905060005b600354811015610f7d5760008080610d08846001611ce4565b815260200190815260200160002060009054906101000a900473ffffffffffffffffffffffffffffffffffffffff16905080868381518110610d4c57610d4c611cb5565b73ffffffffffffffffffffffffffffffffffffffff928316602091820292909201810191909152908216600090815260019182905260409020018054610d9190611a80565b80601f0160208091040260200160405190810160405280929190818152602001828054610dbd90611a80565b8015610e0a5780601f10610ddf57610100808354040283529160200191610e0a565b820191906000526020600020905b815481529060010190602001808311610ded57829003601f168201915b5050505050858381518110610e2157610e21611cb5565b6020026020010181905250600160008273ffffffffffffffffffffffffffffffffffffffff1673ffffffffffffffffffffffffffffffffffffffff1681526020019081526020016000206002018054610e7990611a80565b80601f0160208091040260200160405190810160405280929190818152602001828054610ea590611a80565b8015610ef25780601f10610ec757610100808354040283529160200191610ef2565b820191906000526020600020905b815481529060010190602001808311610ed557829003601f168201915b5050505050848381518110610f0957610f09611cb5565b6020026020010181905250600160008273ffffffffffffffffffffffffffffffffffffffff1673ffffffffffffffffffffffffffffffffffffffff16815260200190815260200160002060030154838381518110610f6957610f69611cb5565b602090810291909101015250600101610cef565b5090919293565b73ffffffffffffffffffffffffffffffffffffffff808216600090815260016020818152604080842081516080810190925280549095168152918401805493946060948594879486948694929391840191610fde90611a80565b80601f016020809104026020016040519081016040528092919081815260200182805461100a90611a80565b80156110575780601f1061102c57610100808354040283529160200191611057565b820191906000526020600020905b81548152906001019060200180831161103a57829003601f168201915b5050505050815260200160028201805461107090611a80565b80601f016020809104026020016040519081016040528092919081815260200182805461109c90611a80565b80156110e95780601f106110be576101008083540402835291602001916110e9565b820191906000526020600020905b8154815290600101906020018083116110cc57829003601f168201915b5050505050815260200160038201548152505090506000816060015190508067ffffffffffffffff81111561112057611120611411565b60405190808252806020026020018201604052801561118357816020015b6111706040518060a0016040528060008152602001606081526020016000815260200160608152602001606081525090565b81526020019060019003908161113e5790505b50925060005b818110156113ca5773ffffffffffffffffffffffffffffffffffffffff89166000908152600260205260408120906111c2836001611ce4565b81526020019081526020016000206040518060a0016040529081600082015481526020016001820180546111f590611a80565b80601f016020809104026020016040519081016040528092919081815260200182805461122190611a80565b801561126e5780601f106112435761010080835404028352916020019161126e565b820191906000526020600020905b81548152906001019060200180831161125157829003601f168201915b505050505081526020016002820154815260200160038201805461129190611a80565b80601f01602080910402602001604051908101604052809291908181526020018280546112bd90611a80565b801561130a5780601f106112df5761010080835404028352916020019161130a565b820191906000526020600020905b8154815290600101906020018083116112ed57829003601f168201915b5050505050815260200160048201805461132390611a80565b80601f016020809104026020016040519081016040528092919081815260200182805461134f90611a80565b801561139c5780601f106113715761010080835404028352916020019161139c565b820191906000526020600020905b81548152906001019060200180831161137f57829003601f168201915b5050505050815250508482815181106113b7576113b7611cb5565b6020908102919091010152600101611189565b50815160208301516040909301519099929850965094509092509050565b803573ffffffffffffffffffffffffffffffffffffffff8116811461140c57600080fd5b919050565b7f4e487b7100000000000000000000000000000000000000000000000000000000600052604160045260246000fd5b604051601f8201601f1916810167ffffffffffffffff8111828210171561146957611469611411565b604052919050565b600082601f83011261148257600080fd5b813567ffffffffffffffff81111561149c5761149c611411565b6114af6020601f19601f84011601611440565b8181528460208386010111156114c457600080fd5b816020850160208301376000918101602001919091529392505050565b6000806000606084860312156114f657600080fd5b6114ff846113e8565b9250602084013567ffffffffffffffff8082111561151c57600080fd5b61152887838801611471565b9350604086013591508082111561153e57600080fd5b5061154b86828701611471565b9150509250925092565b6000806040838503121561156857600080fd5b611571836113e8565b946020939093013593505050565b6000815180845260005b818110156115a557602081850181015186830182015201611589565b506000602082860101526020601f19601f83011685010191505092915050565b85815260a0602082015260006115de60a083018761157f565b85604084015282810360608401526115f6818661157f565b9050828103608084015261160a818561157f565b98975050505050505050565b600080600080600060a0868803121561162e57600080fd5b611637866113e8565b9450602086013567ffffffffffffffff8082111561165457600080fd5b61166089838a01611471565b955060408801359450606088013591508082111561167d57600080fd5b61168989838a01611471565b9350608088013591508082111561169f57600080fd5b506116ac88828901611471565b9150509295509295909350565b600080604083850312156116cc57600080fd5b6116d5836113e8565b915060208084013567ffffffffffffffff808211156116f357600080fd5b818601915086601f83011261170757600080fd5b81358181111561171957611719611411565b8060051b915061172a848301611440565b818152918301840191848101908984111561174457600080fd5b938501935b8385101561176257843582529385019390850190611749565b8096505050505050509250929050565b60006020828403121561178457600080fd5b61178d826113e8565b9392505050565b73ffffffffffffffffffffffffffffffffffffffff851681526080602082015260006117c3608083018661157f565b82810360408401526117d5818661157f565b91505082606083015295945050505050565b60008282518085526020808601955060208260051b8401016020860160005b8481101561183457601f1986840301895261182283835161157f565b98840198925090830190600101611806565b5090979650505050505050565b6080808252855190820181905260009060209060a0840190828901845b8281101561189057815173ffffffffffffffffffffffffffffffffffffffff168452928401929084019060010161185e565b505050838103828501526118a481886117e7565b905083810360408501526118b881876117e7565b8481036060860152855180825283870192509083019060005b818110156118ed578351835292840192918401916001016118d1565b50909998505050505050505050565b60006020828403121561190e57600080fd5b5035919050565b600060a073ffffffffffffffffffffffffffffffffffffffff88168352602060a08185015261194760a085018961157f565b6040858203604087015261195b828a61157f565b91506060886060880152608087840360808901528389518086528686019150868160051b870101878c0160005b83811015611a0157601f198984030185528151805184528a8101518c8c8601526119b48d86018261157f565b9050898201518a860152888201518582038a8701526119d3828261157f565b915050878201519150848103888601526119ed818361157f565b968c01969450505090890190600101611988565b50508099505050505050505050509695505050505050565b7f4e487b7100000000000000000000000000000000000000000000000000000000600052601160045260246000fd5b60007fffffffffffffffffffffffffffffffffffffffffffffffffffffffffffffffff8203611a7957611a79611a19565b5060010190565b600181811c90821680611a9457607f821691505b602082108103611acd577f4e487b7100000000000000000000000000000000000000000000000000000000600052602260045260246000fd5b50919050565b601f821115611b1f576000816000526020600020601f850160051c81016020861015611afc5750805b601f850160051c820191505b81811015611b1b57828155600101611b08565b5050505b505050565b815167ffffffffffffffff811115611b3e57611b3e611411565b611b5281611b4c8454611a80565b84611ad3565b602080601f831160018114611ba55760008415611b6f5750858301515b7fffffffffffffffffffffffffffffffffffffffffffffffffffffffffffffffff600386901b1c1916600185901b178555611b1b565b600085815260208120601f198616915b82811015611bd457888601518255948401946001909101908401611bb5565b5085821015611c1057878501517fffffffffffffffffffffffffffffffffffffffffffffffffffffffffffffffff600388901b60f8161c191681555b5050505050600190811b01905550565b73ffffffffffffffffffffffffffffffffffffffff84168152606060208201526000611c4f606083018561157f565b8281036040840152611c61818561157f565b9695505050505050565b608081526000611c7e608083018761157f565b8560208401528281036040840152611c96818661157f565b90508281036060840152611caa818561157f565b979650505050505050565b7f4e487b7100000000000000000000000000000000000000000000000000000000600052603260045260246000fd5b8082018082111561080357610803611a1956fea2646970667358221220d2531d75d0b3e184c2c1e1f0c374664fe50b432d75594611cf0eda1efdc3e52e64736f6c63430008180033",
  "linkReferences": {},
  "deployedLinkReferences": {}
}