{
  "_format": "hh-sol-artifact-1",
  "contractName": "Review",
  "sourceName": "contracts/Review.sol",
  "abi": [
    {
      "inputs": [
        {
          "internalType": "address",
          "name": "_myERC20Address",
          "type": "address"
        }
      ],
      "stateMutability": "nonpayable",
      "type": "constructor"
    },
    {
      "inputs": [
        {
          "internalType": "address",
          "name": "_restaurantAddress",
          "type": "address"
        },
        {
          "internalType": "string",
          "name": "_description",
          "type": "string"
        },
        {
          "internalType": "uint256",
          "name": "_rating",
          "type": "uint256"
        }
      ],
      "name": "addReview",
      "outputs": [],
      "stateMutability": "nonpayable",
      "type": "function"
    },
    {
      "inputs": [
        {
          "internalType": "address",
          "name": "_restaurantAddress",
          "type": "address"
        }
      ],
      "name": "getUserReviewsForRestaurant",
      "outputs": [
        {
          "components": [
            {
              "internalType": "uint256",
              "name": "reviewID",
              "type": "uint256"
            },
            {
              "internalType": "string",
              "name": "description",
              "type": "string"
            },
            {
              "internalType": "uint256",
              "name": "rating",
              "type": "uint256"
            }
          ],
          "internalType": "struct Review.ReviewStruct[]",
          "name": "",
          "type": "tuple[]"
        }
      ],
      "stateMutability": "view",
      "type": "function"
    },
    {
      "inputs": [],
      "name": "myERC20Contract",
      "outputs": [
        {
          "internalType": "contract MyERC20",
          "name": "",
          "type": "address"
        }
      ],
      "stateMutability": "view",
      "type": "function"
    },
    {
      "inputs": [
        {
          "internalType": "address",
          "name": "",
          "type": "address"
        },
        {
          "internalType": "uint256",
          "name": "",
          "type": "uint256"
        }
      ],
      "name": "restaurantReviews",
      "outputs": [
        {
          "internalType": "uint256",
          "name": "reviewID",
          "type": "uint256"
        },
        {
          "internalType": "string",
          "name": "description",
          "type": "string"
        },
        {
          "internalType": "uint256",
          "name": "rating",
          "type": "uint256"
        }
      ],
      "stateMutability": "view",
      "type": "function"
    },
    {
      "inputs": [],
      "name": "reviewCount",
      "outputs": [
        {
          "internalType": "uint256",
          "name": "",
          "type": "uint256"
        }
      ],
      "stateMutability": "view",
      "type": "function"
    }
  ],
  "bytecode": "0x608060405234801561001057600080fd5b50604051610b22380380610b2283398101604081905261002f91610054565b600080546001600160a01b0319166001600160a01b0392909216919091179055610084565b60006020828403121561006657600080fd5b81516001600160a01b038116811461007d57600080fd5b9392505050565b610a8f806100936000396000f3fe608060405234801561001057600080fd5b50600436106100675760003560e01c8063b69ae9f811610050578063b69ae9f8146100d6578063ba92fb9d146100f8578063eff5924f1461010d57600080fd5b806318d099111461006c57806354fb1abe146100b6575b600080fd5b60005461008c9073ffffffffffffffffffffffffffffffffffffffff1681565b60405173ffffffffffffffffffffffffffffffffffffffff90911681526020015b60405180910390f35b6100c96100c4366004610588565b610124565b6040516100ad919061060e565b6100e96100e43660046106af565b61024c565b6040516100ad939291906106d9565b61010b610106366004610731565b61031b565b005b61011660015481565b6040519081526020016100ad565b73ffffffffffffffffffffffffffffffffffffffff81166000908152600260209081526040808320805482518185028101850190935280835260609492939192909184015b828210156102415783829060005260206000209060030201604051806060016040529081600082015481526020016001820180546101a69061081a565b80601f01602080910402602001604051908101604052809291908181526020018280546101d29061081a565b801561021f5780601f106101f45761010080835404028352916020019161021f565b820191906000526020600020905b81548152906001019060200180831161020257829003601f168201915b5050505050815260200160028201548152505081526020019060010190610169565b505050509050919050565b6002602052816000526040600020818154811061026857600080fd5b9060005260206000209060030201600091509150508060000154908060010180546102929061081a565b80601f01602080910402602001604051908101604052809291908181526020018280546102be9061081a565b801561030b5780601f106102e05761010080835404028352916020019161030b565b820191906000526020600020905b8154815290600101906020018083116102ee57829003601f168201915b5050505050908060020154905083565b6000546040517fbc505be3000000000000000000000000000000000000000000000000000000008152336004820181905273ffffffffffffffffffffffffffffffffffffffff80871660248401529092869291169063bc505be390604401602060405180830381865afa158015610396573d6000803e3d6000fd5b505050506040513d601f19601f820116820180604052508101906103ba919061086d565b1515600114610450576040517f08c379a000000000000000000000000000000000000000000000000000000000815260206004820152603560248201527f4f6e6c79207061727469636970616e7473206f6620746865206f72646572206360448201527f616e2063616c6c20746869732066756e6374696f6e000000000000000000000060648201526084015b60405180910390fd5b8260018110158015610463575060058111155b6104c9576040517f08c379a000000000000000000000000000000000000000000000000000000000815260206004820152601e60248201527f526174696e67206d757374206265206265747765656e203120616e64203500006044820152606401610447565b600180549060006104d98361088f565b909155505073ffffffffffffffffffffffffffffffffffffffff8616600090815260026020908152604080832081516060810183526001805482528185018b81529382018a9052825480820184559286529390942084516003909202019081559051909182019061054a908261093f565b50604082015181600201555050505050505050565b803573ffffffffffffffffffffffffffffffffffffffff8116811461058357600080fd5b919050565b60006020828403121561059a57600080fd5b6105a38261055f565b9392505050565b6000815180845260005b818110156105d0576020818501810151868301820152016105b4565b5060006020828601015260207fffffffffffffffffffffffffffffffffffffffffffffffffffffffffffffffe0601f83011685010191505092915050565b600060208083018184528085518083526040925060408601915060408160051b87010184880160005b838110156106a1577fffffffffffffffffffffffffffffffffffffffffffffffffffffffffffffffc0898403018552815160608151855288820151818a870152610683828701826105aa565b92890151958901959095525094870194925090860190600101610637565b509098975050505050505050565b600080604083850312156106c257600080fd5b6106cb8361055f565b946020939093013593505050565b8381526060602082015260006106f260608301856105aa565b9050826040830152949350505050565b7f4e487b7100000000000000000000000000000000000000000000000000000000600052604160045260246000fd5b60008060006060848603121561074657600080fd5b61074f8461055f565b9250602084013567ffffffffffffffff8082111561076c57600080fd5b818601915086601f83011261078057600080fd5b81358181111561079257610792610702565b604051601f82017fffffffffffffffffffffffffffffffffffffffffffffffffffffffffffffffe0908116603f011681019083821181831017156107d8576107d8610702565b816040528281528960208487010111156107f157600080fd5b826020860160208301376000602084830101528096505050505050604084013590509250925092565b600181811c9082168061082e57607f821691505b602082108103610867577f4e487b7100000000000000000000000000000000000000000000000000000000600052602260045260246000fd5b50919050565b60006020828403121561087f57600080fd5b815180151581146105a357600080fd5b60007fffffffffffffffffffffffffffffffffffffffffffffffffffffffffffffffff82036108e7577f4e487b7100000000000000000000000000000000000000000000000000000000600052601160045260246000fd5b5060010190565b601f82111561093a576000816000526020600020601f850160051c810160208610156109175750805b601f850160051c820191505b8181101561093657828155600101610923565b5050505b505050565b815167ffffffffffffffff81111561095957610959610702565b61096d81610967845461081a565b846108ee565b602080601f8311600181146109c0576000841561098a5750858301515b7fffffffffffffffffffffffffffffffffffffffffffffffffffffffffffffffff600386901b1c1916600185901b178555610936565b6000858152602081207fffffffffffffffffffffffffffffffffffffffffffffffffffffffffffffffe08616915b82811015610a0d578886015182559484019460019091019084016109ee565b5085821015610a4957878501517fffffffffffffffffffffffffffffffffffffffffffffffffffffffffffffffff600388901b60f8161c191681555b5050505050600190811b0190555056fea2646970667358221220a2eaade1dc67a6fc4af3046d6275196459c1c1b3a7f12771c58ddc6f3409705d64736f6c63430008180033",
  "linkReferences": {},
  "deployedLinkReferences": {}
}