{
  "_format": "hh-sol-artifact-1",
  "contractName": "User",
  "sourceName": "contracts/User.sol",
  "abi": [
    {
      "anonymous": false,
      "inputs": [
        {
          "indexed": true,
          "internalType": "address",
          "name": "from",
          "type": "address"
        },
        {
          "indexed": true,
          "internalType": "address",
          "name": "to",
          "type": "address"
        },
        {
          "indexed": false,
          "internalType": "uint256",
          "name": "amount",
          "type": "uint256"
        }
      ],
      "name": "OrderPlaced",
      "type": "event"
    },
    {
      "anonymous": false,
      "inputs": [
        {
          "indexed": false,
          "internalType": "uint256",
          "name": "_orderID",
          "type": "uint256"
        },
        {
          "indexed": false,
          "internalType": "uint256",
          "name": "reviewID",
          "type": "uint256"
        },
        {
          "indexed": false,
          "internalType": "uint256",
          "name": "_rating",
          "type": "uint256"
        }
      ],
      "name": "ReviewAdded",
      "type": "event"
    },
    {
      "anonymous": false,
      "inputs": [
        {
          "indexed": false,
          "internalType": "uint256",
          "name": "userCount",
          "type": "uint256"
        },
        {
          "indexed": false,
          "internalType": "address",
          "name": "_uderAddress",
          "type": "address"
        }
      ],
      "name": "UserAdded",
      "type": "event"
    },
    {
      "inputs": [
        {
          "internalType": "address",
          "name": "_metaMaskID",
          "type": "address"
        }
      ],
      "name": "createUser",
      "outputs": [],
      "stateMutability": "nonpayable",
      "type": "function"
    },
    {
      "inputs": [],
      "name": "userCount",
      "outputs": [
        {
          "internalType": "uint256",
          "name": "",
          "type": "uint256"
        }
      ],
      "stateMutability": "view",
      "type": "function"
    },
    {
      "inputs": [
        {
          "internalType": "address",
          "name": "_userAddress",
          "type": "address"
        }
      ],
      "name": "userExists",
      "outputs": [
        {
          "internalType": "bool",
          "name": "",
          "type": "bool"
        }
      ],
      "stateMutability": "view",
      "type": "function"
    },
    {
      "inputs": [
        {
          "internalType": "address",
          "name": "",
          "type": "address"
        }
      ],
      "name": "users",
      "outputs": [
        {
          "internalType": "address",
          "name": "metaMaskID",
          "type": "address"
        }
      ],
      "stateMutability": "view",
      "type": "function"
    }
  ],
  "bytecode": "0x608060405234801561001057600080fd5b50610381806100206000396000f3fe608060405234801561001057600080fd5b506004361061004c5760003560e01c806307973ccf146100515780630e666e491461006d578063a87430ba146100b8578063cdd8761814610113575b600080fd5b61005a60015481565b6040519081526020015b60405180910390f35b6100a861007b36600461028e565b73ffffffffffffffffffffffffffffffffffffffff90811660009081526020819052604090205416151590565b6040519015158152602001610064565b6100ee6100c636600461028e565b60006020819052908152604090205473ffffffffffffffffffffffffffffffffffffffff1681565b60405173ffffffffffffffffffffffffffffffffffffffff9091168152602001610064565b61012661012136600461028e565b610128565b005b73ffffffffffffffffffffffffffffffffffffffff80821660009081526020819052604090205416156101bb576040517f08c379a000000000000000000000000000000000000000000000000000000000815260206004820152601360248201527f5573657220616c72656164792065786973747300000000000000000000000000604482015260640160405180910390fd5b600180549060006101cb836102fa565b9091555050604080516020808201835273ffffffffffffffffffffffffffffffffffffffff848116808452600090815291829052929020905181547fffffffffffffffffffffffff0000000000000000000000000000000000000000169216919091179055600180547f785caf8769bd44d265fce8c1a3327e91646fe19be3a87506383b5e95a5c434949161025f91610332565b6040805191825273ffffffffffffffffffffffffffffffffffffffff841660208301520160405180910390a150565b6000602082840312156102a057600080fd5b813573ffffffffffffffffffffffffffffffffffffffff811681146102c457600080fd5b9392505050565b7f4e487b7100000000000000000000000000000000000000000000000000000000600052601160045260246000fd5b60007fffffffffffffffffffffffffffffffffffffffffffffffffffffffffffffffff820361032b5761032b6102cb565b5060010190565b81810381811115610345576103456102cb565b9291505056fea2646970667358221220a192f082812f6f9f8f4c397f1cf99a51fa0a33e45cab52d079ff5e276d3c809264736f6c63430008180033",
  "linkReferences": {},
  "deployedLinkReferences": {}
}